:020000040000FA
:0600000030EF2FF01200AA
:08000800D0BE2DEF2FF0DDEF5B
:0400100026F01200C4
:06001800DDEF26F01200EE
:06002A000100945E0000DD
:0800300052050000230000004E
:080038001EEC26F060EC05F05F
:1000400084EC05F02EEC06F0D5EC04F064EC14F032
:10005000D7EC05F002EC06F01FEC26F012000101CF
:100060007C050EE101017451006E016AD8900150C7
:1000700004E6FF0E005C000E015802E20101742B41
:100080001200D9CFE6FFDACFE6FFE1CFD9FFE2CF0A
:10009000DAFFE65201017C0573E1C00EF214DF6E57
:1000A000800ED0143F09F21601017451000802E2DB
:1000B000010174070101745161E1010176515EE1B2
:1000C0004E0E006E560E016E000E026E79C103F0E8
:1000D000046A056A00500324F36E01500420F46E94
:1000E00002500520F86EF4CFF7FFF3CFF6FF0800BB
:1000F000F5CF75F14E0E016E560E026E000E036EB8
:1001000001017551EA6A7A0FE96E010EEA22EFCF1A
:1001100004F0056A066A01500424F36E02500520BB
:10012000F46E03500620F86EF4CFF7FFF3CFF6FF1E
:100130000800F5CF00F001017551080DF3500024BF
:100140000101786F010177510101785D17E001012C
:100150007851E96EEA6AD890E936EA36EE0EE92679
:10016000010EEA22EECFEAF1EDCFEBF10001B02B68
:10017000000EB123B223B32326EC27F0DF50F21296
:10018000E552E552E5CFDAFFE7CFD9FF1200D9CF2C
:10019000E6FFDACFE6FFE1CFD9FFE2CFDAFFE652A2
:1001A00001017C0517E1C00EF214DF6E800ED01441
:1001B0003F09F21601017651006E016AD890015094
:1001C00004E6FF0E005C000E015802E20101762BEE
:1001D000DF50F212E552E552E5CFDAFFE7CFD9FF63
:1001E0001200D9CFE6FFDACFE6FFE1CFD9FFE2CFA9
:1001F000DAFFE65201017C051DE1C00EF214DF6E4C
:10020000800ED0143F09F21601017651000810E269
:10021000010176070101765108E10101745105E100
:10022000DF50F212C8EC06F002D0DF50F21202D01A
:10023000DF50F212E552E552E5CFDAFFE7CFD9FF02
:100240001200D9CFE6FFDACFE6FFE1CFD9FFE2CF48
:10025000DAFFE652E65201017C515CE14E0E006E7F
:10026000560E016E000E026E79C103F0046A056A33
:1002700000500324F36E01500420F46E0250052058
:10028000F86EF4CFF7FFF3CFF6FF0800F550DF6EFE
:100290004E0E006E560E016E000E026EDF50EA6AC0
:1002A0007A0FE96E010EEA22EFCF03F0046A056AC5
:1002B00000500324F36E01500420F46E0250052018
:1002C000F86EF4CFF7FFF3CFF6FF0800010EF5CF7D
:1002D000DBFF010EDBCFE6FFDF50080DF350E552E8
:1002E000E7240101786F78C177F101017851E96E57
:1002F000EA6AD890E936EA36EE0EE926010EEA22DD
:10030000EECFEAF1EDCFEBF1EAC1E6F1EBC1E7F1B7
:1003100020EC26F0E552E552E552E5CFDAFFE7CFD3
:10032000D9FF1200D9CFE6FFDACFE6FFE1CFD9FF40
:10033000E2CFDAFFE652020EE66EE66A10EC22F039
:10034000E552E552C00EF214DF6E800ED0143F0964
:10035000F21601017E6B7F6B806B816BDF50F212B6
:10036000640EE66EE66A10EC22F0E552E552C00E2D
:10037000F214DF6E800ED0143F09F2167EC107F131
:100380007FC108F180C109F181C10AF10101010EAB
:100390000F6FDF50F212E552E552E5CFDAFFE7CFFB
:1003A000D9FF1200D9CFE6FFDACFE6FFE1CFD9FFC0
:1003B000E2CFDAFFE652E652E6520EEC26F0C00E2D
:1003C000F214DF6E800ED0143F09F2160301A02B49
:1003D000000EA123A223A323DF50F21201017C050A
:1003E00001E0A0D0010EECC1DBFF020EEDC1DBFF8E
:1003F000010EDBCFE9FF020EDBCFEAFF190EE92683
:10040000000EEA22EFCF00F0016A026A036A0F0EC3
:10041000001805E1015003E1025001E1035001E140
:1004200081D0C00EF214DF6E800ED0143F09F21698
:10043000010EDBCFE9FF020EDBCFEAFF160EE92645
:10044000000EEA22EE50ED105AE0010EDBCFE9FF7C
:10045000020EDBCFEAFF160EE926000EEA22EE06B8
:10046000000EED5AEECF00F0EDCF01F0005001107C
:1004700046E1010EDBCFE9FF020EDBCFEAFF180EEB
:10048000E926000EEA22EF50080B2CE1010EDBCF2B
:10049000E9FF020EDBCFEAFF1D0EE926000EEA227D
:1004A000EF5001017913010EDBCFE9FF020EDBCF24
:1004B000EAFF1C0EE926000EEA22EFCF00F0010E43
:1004C000DBCFE9FF020EDBCFEAFF1B0EE926000EB1
:1004D000EA22EF50EA6A7A0FE96E010EEA22005032
:1004E000EF120DD0010EDBCFE9FF020EDBCFEAFFEA
:1004F000160EE926000EEA22010EEE6EED6A010EDE
:10050000DBCFE9FF020EDBCFEAFF0E0EE926000E7D
:10051000EA22010EEECFDBFF020EEDCFDBFFDF5054
:10052000F21266D7E552E552E552E552E5CFDAFF21
:10053000E7CFD9FF1200FC0EF36EF46A00D0120070
:100540001200D9CFE6FFDACFE6FFE1CFD9FFE2CF45
:10055000DAFF070EE12402E3E168E652E16E4E0E97
:10056000006E560E016E000E026EFC0EDBCFE9FF30
:10057000FD0EDBCFEAFFEE52EFCF03F0046A056A0F
:1005800000500324F36E01500420F46E0250052045
:10059000F86EF4CFF7FFF3CFF6FF0800030EF5CFA8
:1005A000DBFF460E006E560E016E000E026E030E4D
:1005B000DBCF03F0046A056A00500324F36E015098
:1005C0000420F46E02500520F86EF4CFF7FFF3CF4D
:1005D000F6FF0800050EF5CFDBFF4E0E006E560E3F
:1005E000016E000E026EFC0EDBCFE9FFFD0EDBCFCD
:1005F000EAFF060EE926000EEA22E9CF06F0EACF6E
:1006000007F0030EDB500F010624E96E000E0720F1
:10061000EA6EEFCF03F0046A056A00500324F36E1C
:1006200001500420F46E02500520F86EF4CFF7FF5D
:10063000F3CFF6FF0800020EF5CFDBFF460E006E8B
:10064000560E016E000E026E020EDBCF03F0046A3E
:10065000056A00500324F36E01500420F46E02502A
:100660000520F86EF4CFF7FFF3CFF6FF0800040E75
:10067000F5CFDBFF020EDBCFE6FF030EDB50080DEC
:10068000F350E552E724E76E060EE7CFDBFF040EDA
:10069000DB1C026EFC0EDBCFE9FFFD0EDBCFEAFFB9
:1006A000060EE926000EEA22E9CF00F0EACF01F0BB
:1006B000030EDB500F010024E96E000E0120EA6EEC
:1006C0000250EF16EF500CE1050EDB1C006EFC0E25
:1006D000DBCFE9FFFD0EDBCFEAFFEE520050EF1655
:1006E000060EEA6ADB34FE0BEA36E96EEE0EE92608
:1006F000010EEA22EECFDEFFEDCFDDFFDECFE9FF18
:10070000DDCFEAFF160EEB6A170EEB6ADECFE9FFCC
:10071000DDCFEAFF120EEB6A130EEB6ADECFE9FFC4
:10072000DDCFEAFF140EE926000EEA22FA0EDBCF37
:10073000EEFFFB0EDBCFEDFFF90EDB1C006EDECF14
:10074000E9FFDDCFEAFF180EE926000EEA2200508D
:10075000EF16DECFE9FFDDCFEAFF180EE926000E27
:10076000EA22EF500EE1050EDB5001017913030E72
:10077000DB50EA6A7A0FE96E010EEA22040EDB50C2
:10078000EF12060EDB5000D0006E070EE15C02E2B5
:10079000E16AE552E16E0050E552E5CFDAFFE7CFBE
:1007A000D9FF1200D9CFE6FFDACFE6FFE1CFD9FFBC
:1007B000E2CFDAFFE6C1E9FFE7C1EAFF120EE92660
:1007C000000EEA22FC0EDBCFEEFFFD0EDBCFEDFFCD
:1007D000E6C1E9FFE7C1EAFF1C0EEB50E81C006E22
:1007E000E6C1E9FFE7C1EAFF1B0EEB50EA6A7A0FA8
:1007F000E96E010EEA220050EF16EF5009E1E6C162
:10080000E9FFE7C1EAFF1D0EEB50E81C0101791773
:10081000E6C1E9FFE7C1EAFF1C0EEB50026EFC0ED9
:10082000DBCFE9FFFD0EDBCFEAFF060EE926000E67
:10083000EA22E9CF00F0EACF01F0E6C1E9FFE7C123
:10084000EAFF1B0EEB500F010024E96E000E0120A1
:10085000EA6E0250EF12E6C1E9FFE7C1EAFF1D0EA2
:10086000EB50006EFC0EDBCFE9FFFD0EDBCFEAFFA5
:10087000EE520050EF12E552E5CFDAFFE7CFD9FF95
:100880001200D9CFE6FFDACFE6FFE1CFD9FFE2CF02
:10089000DAFFE6C1E9FFE7C1EAFF1C0EEB50E81CF6
:1008A000026EFC0EDBCFE9FFFD0EDBCFEAFF060E8A
:1008B000E926000EEA22E9CF00F0EACF01F0E6C116
:1008C000E9FFE7C1EAFF1B0EEB500F010024E96EC0
:1008D000000E0120EA6E0250EF16EF5011E1E6C162
:1008E000E9FFE7C1EAFF1D0EEB50E81C006EFC0EAD
:1008F000DBCFE9FFFD0EDBCFEAFFEE520050EF1633
:10090000E6C1E9FFE7C1EAFF180EE926000EEA2278
:10091000EF6AE6C1E9FFE7C1EAFF120EEB6A130EC8
:10092000EB6AE552E5CFDAFFE7CFD9FF1200D9CF66
:10093000E6FFDACFE6FFE1CFD9FFE2CFDAFFE652FA
:10094000E652FC0EDBCFE9FFFD0EDBCFEAFFEE52F5
:10095000EF6AFC0EDBCFE9FFFD0EDBCFEAFF060EF0
:10096000E926000EEA22E9CF00F0EACF01F000C04C
:10097000DEFF01C0DDFFDFCFE9FFDF2A010EDBCFA5
:10098000EAFF01E3DB2AEF6ADFCFE9FFDF2A010E8E
:10099000DBCFEAFF01E3DB2AEF6AE552E552E552DD
:1009A000E5CFDAFFE7CFD9FF1200D9CFE6FFDACFE4
:1009B000E6FFE1CFD9FFE2CFDAFF060EE12402E342
:1009C000E168E652E16ED950020FE96EDACFEAFF34
:1009D000000EEA22B60EEE6E000EED6ED950040F38
:1009E000E96EDACFEAFF000EEA22BE0EEE6E000ECE
:1009F000ED6EDE6ADD6ADECF00F0DDCF01F0026A67
:100A0000036AD8900350000A08E6090E005C000E45
:100A10000158000E0258000E035830E2020EDBCFE0
:100A2000E9FF030EDBCFEAFFEF6A020EDBCFE9FF3F
:100A3000030EDBCFEAFF040EE926000EEA22040EC5
:100A4000DBCFEEFF050EDBCFEDFFD950020FE96ED5
:100A5000000EDA20EA6E080EEE26000EEF22D950C4
:100A6000040FE96E000EDA20EA6E080EEE26000E84
:100A7000EF22DF2A010E01E3DB2ABDD7020EDBCF16
:100A8000E9FF030EDBCFEAFFEF6A020EDBCFE9FFDF
:100A9000030EDBCFEAFF040EEB6A050EEB6A0001E2
:100AA000B60EB46F000EB56F060EE15C02E2E16AAD
:100AB000E552E16EE552E5CFDAFFE7CFD9FF12004C
:100AC0000301A06BA16BA26BA36B0101746B01010D
:100AD000766B01017D6B01017C6B0001B06BB16B2A
:100AE000B26BB36B01017E6B7F6B806B816B01011D
:100AF0000B6B0C6B0D6B0E6B0101076B086B096BBD
:100B00000A6B01010F6B1200D9CFE6FFDACFE6FFC7
:100B1000E1CFD9FFE2CFDAFFE652E652E652E652E3
:100B20000101796BD950020FE96EDACFEAFF000EAE
:100B3000EA227A0EEE6E010EED6EDE6ADD6ADECF1F
:100B400000F0DDCF01F0026A036AD8900350000A7A
:100B500008E6020E005C000E0158000E0258000E5E
:100B600003580FE2020EDBCFE9FFDB2A030EDBCFD7
:100B7000EAFF01E3DB2AEF6ADF2A010E01E3DB2A49
:100B8000DED70101776B0101786B0101EA6BEB6B3A
:100B90000101E66BE76B040EE15C02E2E16AE552FB
:100BA000E16EE552E5CFDAFFE7CFD9FF1200030E81
:100BB000E66EE66A000EE66EE66A640EE66EE66AC9
:100BC000E66AE66AE50EE66E010EE66EE668E6683F
:100BD0000F0EE66E820EE66E010EE66E000EE66EFB
:100BE000E66A900EE66E0E0EE66E000EE66EEEEC17
:100BF0001BF0006E140EE15C02E2E16AE552E16E68
:100C000000501200030EE66EE66A000EE66EE66A1B
:100C1000640EE66EE66AE66AE66A730EE66E010E3A
:100C2000E66EFE0EE66EE6680E0EE66E100EE66EE0
:100C3000010EE66E000EE66EE66AEC0EE66E0E0E35
:100C4000E66E000EE66EEEEC1BF0006E140EE15C3C
:100C500002E2E16AE552E16E00501200D9CFE6FFF0
:100C6000DACFE6FFE1CFD9FFE2CFDAFFE652E65274
:100C7000E652E652E6520101EC6BED6BDF6ADFCF24
:100C800000F0016A026A036AD8900350000A08E67D
:100C9000100E005C000E0158000E0258000E0358A2
:100CA0000DE2EA6ADF34FE0BEA36E96EEE0EE92663
:100CB000010EEA22EE6AED6ADF2AE1D7D950010F70
:100CC000E96EDACFEAFF000EEA220E0EEE6E020E99
:100CD000ED6ED950030FE96EDACFEAFF000EEA227B
:100CE0002D0EEE6E020EED6EDF6ADFCF00F0016AB0
:100CF000026A036AD8900350000A08E60B0E005CF3
:100D0000000E0158000E0258000E035826E2010E94
:100D1000DBCFE9FF020EDBCFEAFF0E0EE926000E65
:100D2000EA22030EDBCFEEFF040EDBCFEDFFD9503E
:100D3000010FE96E000EDA20EA6E1F0EEE26000E9D
:100D4000EF22D950030FE96E000EDA20EA6E1F0E73
:100D5000EE26000EEF22DF2AC8D7010EDBCFE9FF17
:100D6000020EDBCFEAFF0E0EEB6A0F0EEB6A0101FB
:100D70000E0EE86F020EE96F050EE15C02E2E16A19
:100D8000E552E16EE552E5CFDAFFE7CFD9FF120079
:100D9000D9CFE6FFDACFE6FFE1CFD9FFE2CFDAFF26
:100DA000E652E652C00EF214DF6E800ED0143F09F8
:100DB000F2160101745162E1010176515FE14E0EBC
:100DC000006E560E016E000E026E79C103F0046AC9
:100DD000056A00500324F36E01500420F46E0250A3
:100DE0000520F86EF4CFF7FFF3CFF6FF0800010EF1
:100DF000F5CFDBFF4E0E016E560E026E000E036E37
:100E0000010EDB50EA6A7A0FE96E010EEA22EFCF9B
:100E100004F0056A066A01500424F36E02500520AE
:100E2000F46E03500620F86EF4CFF7FFF3CFF6FF11
:100E30000800F5CF00F0010EDB50080DF350002440
:100E40000101786F010177510101785D17E001011F
:100E50007851E96EEA6AD890E936EA36EE0EE9266C
:100E6000010EEA22EECFEAF1EDCFEBF10001B02B5B
:100E7000000EB123B223B32362EC26F0DF50F2124E
:100E8000E552E552E552E5CFDAFFE7CFD9FF120090
:100E9000D9CFE6FFDACFE6FFE1CFD9FFE2CFDAFF25
:100EA000E652FC0EDBCF1AF0FD0EDBCF1BF0FC0E82
:100EB0001AC0DBFFFD0E1BC0DBFFC00EF214DF6E9D
:100EC000800ED0143F09F21601017E2B000E7F2305
:100ED00080238123DF50F2121DEC26F0EED7E5527D
:100EE000E552E5CFDAFFE7CFD9FF1200D9CFE6FF11
:100EF000DACFE6FFE1CFD9FFE2CFDAFF0A0EE12435
:100F000002E3E168E652E16EFC0EDBCF1AF0FD0E63
:100F1000DBCF1BF0FC0E1AC0DBFFFD0E1BC0DBFF9E
:100F200001010F5108E1C80EE66EE66A10EC22F0EE
:100F3000E552E552F5D707C118F008C119F009C10B
:100F40001AF00AC11BF0640E1D6E1E6A1F6A206A29
:100F500018EC2EF0050E18C0DBFF060E19C0DBFFE3
:100F6000070E1AC0DBFF080E1BC0DBFFC00EF21419
:100F7000DF6E800ED0143F09F2167EC10BF17FC1E7
:100F80000CF180C10DF181C10EF1010E7EC1DBFFBC
:100F9000020E7FC1DBFF030E80C1DBFF040E81C1A7
:100FA000DBFF01017E6B7F6B806B816BDF50F21288
:100FB000D950050FE96E000EDA20EA6ED880000ED7
:100FC000EE54000EEE54000EEE54000EEE5442E2CB
:100FD000640E046E056A066A076A010EDBCF08F02C
:100FE000020EDBCF09F0030EDBCF0AF0040EDBCFDD
:100FF0000BF008C018F009C019F00AC01AF00BC0B5
:101000001BF0050EDBCF1DF0060EDBCF1EF0070E2A
:10101000DBCF1FF0080EDBCF20F018EC2EF01850BD
:10102000045C006E19500558016E1A500658026E85
:101030001B500758036E090E00C0DBFF090EDBCF03
:1010400000F0003404E2090EDBCF06F102D001010A
:10105000066B1DD00101066B07C118F008C119F01D
:1010600009C11AF00AC11BF0640E1D6E1E6A1F6AC8
:10107000206A18EC2EF0050E18C0DBFF060E19C012
:10108000DBFF070E1AC0DBFF080E1BC0DBFF0DECF9
:1010900026F0640EE66EE66A10EC22F0E552E552A8
:1010A00065D70A0EE15C02E2E16AE552E16EE552C3
:1010B000E5CFDAFFE7CFD9FF1200D9CFE6FFDACFCD
:1010C000E6FFE1CFD9FFE2CFDAFFE652E652E65281
:1010D000C00EF214DF6E800ED0143F09F216010E1E
:1010E000E8C1DBFF020EE9C1DBFFD950010FE96E59
:1010F000000EDA20EA6EEE50ED1001E1C3D1010ED0
:10110000DBCFE9FF020EDBCFEAFF0E0EE926000E71
:10111000EA22EECFE8F1EDCFE9F1DF50F212010E55
:10112000DBCFE9FF020EDBCFEAFFFB0EDBCFEEFFEA
:10113000FC0EDBCFEDFF010EDBCFE9FF020EDBCFB4
:10114000EAFF190EE926000EEA22FD0EDBCFEFFFC3
:10115000010EDBCFE9FF020EDBCFEAFF180EE92616
:10116000000EEA22EF6A010EDBCFE9FF020EDBCFB1
:10117000EAFF160EEB6A170EEB6A010EDBCFE9FFF2
:10118000020EDBCFEAFF020EE926000EEA22F10E84
:10119000DBCFEEFFF20EDBCFEDFF010EDBCFE9FF81
:1011A000020EDBCFEAFF060EE926000EEA22F30E5E
:1011B000DBCFEEFFF40EDBCFEEFFF50EDBCFEEFF65
:1011C000F60EDBCFEEFF010EDBCFE9FF020EDBCF29
:1011D000EAFF040EE926000EEA22F90EDBCFEEFF4D
:1011E000FA0EDBCFEDFF010EDBCFE9FF020EDBCF06
:1011F000EAFF0A0EE926000EEA22EF0EDBCFEEFF31
:10120000F00EDBCFEDFF010EDBCFE9FF020EDBCFEF
:10121000EAFF0C0EE926000EEA22F70EDBCFEEFF06
:10122000F80EDBCFEDFF010EDBCFE9FF020EDBCFC7
:10123000EAFF1E0EE926000EEA22EF6AFD0EDB40F1
:10124000E840E8401F0BE66E010EDBCFE9FF020E1F
:10125000DBCFEAFF1B0EE926000EEA22E552E7503B
:10126000EF6E460E006E560E016E000E026E010EFF
:10127000DBCFE9FF020EDBCFEAFF1B0EE926000EF3
:10128000EA22EFCF03F0046A056A00500324F36EEC
:1012900001500420F46E02500520F86EF4CFF7FFE1
:1012A000F3CFF6FF0800F550E66E010EDBCFE9FF45
:1012B000020EDBCFEAFF1D0EE926000EEA22E55200
:1012C000E750EF6EFD0EDB50070BE66E010EDBCF35
:1012D000E9FF020EDBCFEAFF1A0EE926000EEA2232
:1012E000E552E750EF6E460E006E560E016E000E90
:1012F000026E010EDBCFE9FF020EDBCFEAFF1A0E12
:10130000E926000EEA22EFCF03F0046A056A0050D6
:101310000324F36E01500420F46E02500520F86E91
:10132000F4CFF7FFF3CFF6FF0800F550E66E010E9D
:10133000DBCFE9FF020EDBCFEAFF1C0EE926000E31
:10134000EA22E552E750EF6E010EDBCFE9FF020E15
:10135000DBCFEAFF120EEB6A130EEB6A010EDBCF56
:10136000E9FF020EDBCFEAFF140EEB6A150EEB6A03
:10137000010EDBCFE6FF020EDBCFE6FF0FEC26F01F
:10138000E552E552010EDBCFE6FF020EDBCFE6FFB2
:10139000EFEC25F0E552E552C00EF214DF6E800E40
:1013A000D0143F09F216FD0EEA6ADB34FE0BEA3672
:1013B000E96EEE0EE926010EEA22010EDBCFEEFF0A
:1013C000020EDBCFEDFF010EDBCFE9FF020EDBCF1C
:1013D000EAFF0E0EE926000EEA22ECC1EEFFEDC197
:1013E000EDFF010EDBCFE9FF020EDBCFEAFF100EAF
:1013F000EB6A110EEB6A0101EC51ED110EE0ECC14C
:10140000E9FFEDC1EAFF100EE926000EEA22010E07
:10141000DBCFEEFF020EDBCFEDFF010EDBCFECF1F9
:10142000020EDBCFEDF1010EDBCFE9FF020EDBCFC9
:10143000EAFF1D0EE926000EEA22EF5001017913A2
:10144000010EDBCFE9FF020EDBCFEAFF1C0EE9261F
:10145000000EEA22EFCF00F0010EDBCFE9FF020E13
:10146000DBCFEAFF1B0EE926000EEA22EF50EA6A04
:101470007A0FE96E010EEA220050EF12DF50F212ED
:10148000000E04D0DF50F212460E00D0E552E552B5
:10149000E552E552E5CFDAFFE7CFD9FF1200D9CF09
:1014A000E6FFDACFE6FFE1CFD9FFE2CFDAFFE6527F
:1014B000E652E652E652E652D950FC0FE96EFF0EB4
:1014C000DA20EA6EEE50ED1003E1F36AF46AACD074
:1014D000FC0EDBCFE9FFFD0EDBCFEAFFEF50020889
:1014E00003E0F36AF46AA0D0C00EF214DF6E800E3F
:1014F000D0143F09F216FC0EDBCFE9FFFD0EDBCF67
:10150000EAFF040EE926000EEA22030EEECFDBFF0F
:10151000040EEDCFDBFF030EDBCFE9FF040EDBCFC4
:10152000EAFF0C0EE926000EEA22000ED880EE54E7
:10153000000EED5468E2030EDBCFE9FF040EDBCFB3
:10154000EAFF080EE926000EEA22EECFF3FFEDCF08
:10155000F4FF020EEE26000EEF22F3CFE9FFF4CFE8
:10156000EAFF010EEECFDBFF020EEDCFDBFF030E35
:10157000DBCFE9FF040EDBCFEAFF0C0EE926000EFD
:10158000EA22EE06000EEF5A030EDBCFE9FF040E4F
:10159000DBCFEAFF080EE926000EEA22EECF00F0CC
:1015A000EFCF01F0030EDBCFE9FF040EDBCFEAFF44
:1015B000040EE926000EEA22EECF02F0EFCF03F090
:1015C0000250001802E1035001181CE1030EDBCFAA
:1015D000E9FF040EDBCFEAFF020EE926000EEA2245
:1015E000EECF00F0EFCF01F0030EDBCFE9FF040EEA
:1015F000DBCFEAFF080EE926000EEA2200C0EEFF6C
:1016000001C0EDFF04D0010EDB6A020EDB6ADF5081
:10161000F212010EDBCF00F0020EDBCF01F000C0B2
:10162000F3FF01C0F4FF00D0050EE15C02E2E16AC5
:10163000E552E16EE552E5CFDAFFE7CFD9FF1200C0
:10164000D9CFE6FFDACFE6FFE1CFD9FFE2CFDAFF6D
:10165000E652E652E652E652E652010174510008A3
:1016600003E2F36AF46A08D1C00EF214DF6E800E52
:10167000D0143F09F216010EB4C0DBFF020EB5C054
:10168000DBFF0001B451B5110CE0B4C0E9FFB5C0F7
:10169000EAFF040EE926000EEA22EECFB4F0EDCF09
:1016A000B5F0DF50F212D950010FE96E000EDA20CA
:1016B000EA6EEE50ED1001E1D4D0C00EF214DF6EF0
:1016C000800ED0143F09F216030E82C3DBFF040E16
:1016D00083C3DBFFD950030FE96E000EDA20EA6EF8
:1016E000EE50ED1001E1A3D082C3E9FF83C3EAFF0E
:1016F000EECF82F3EDCF83F3DF50F212030EDBCF98
:10170000E9FF040EDBCFEAFF020EE926000EEA2213
:10171000FC0EDBCFEEFFFD0EDBCFEDFFFA0EDBCFD5
:1017200002F0FB0EDBCF03F0010ED8900236033639
:10173000E806FBE1FC0EDB500224006EFD0EDB50E0
:101740000320016E030EDBCFE9FF040EDBCFEAFFBF
:10175000040EE926000EEA2200C0EEFF01C0EDFFF4
:10176000030EDBCFE9FF040EDBCFEAFF060EE9260E
:10177000000EEA22FC0EDBCFEEFFFD0EDBCFEDFF0D
:10178000030EDBCFE9FF040EDBCFEAFF080EE926EC
:10179000000EEA22FC0EDBCFEEFFFD0EDBCFEDFFED
:1017A000030EDBCFE9FF040EDBCFEAFF0A0EE926CA
:1017B000000EEA22FA0EDBCFEEFFFB0EDBCFEDFFD1
:1017C000030EDBCFE9FF040EDBCFEAFF0C0EEB6A62
:1017D0000D0EEB6A010EDBCFE9FF020EDBCFEAFF55
:1017E000020EEF6E010EDBCFE9FF020EDBCFEAFF48
:1017F000020EEB6A030EEB6A010EDBCFE9FF020E6D
:10180000DBCFEAFF040EE926000EEA22030EDBCF4F
:10181000EEFF040EDBCFEDFF010EDBCFE6FF020E85
:10182000DBCFE6FF97EC04F0E552E5521AD0010E4B
:10183000DBCFE9FF020EDBCFEAFF040EE926000E44
:10184000EA22B4C0EEFFB5C0EDFF010EDBCFB4F06D
:10185000020EDBCFB5F0DF50F212010EDB6A020E92
:10186000DB6A010EDBCF00F0020EDBCF01F000C01F
:10187000F3FF01C0F4FF00D0050EE15C02E2E16A73
:10188000E552E16EE552E5CFDAFFE7CFD9FF12006E
:10189000D9CFE6FFDACFE6FFE1CFD9FFE2CFDAFF1B
:1018A000E652E652E652E6520101745100080BE29C
:1018B000F90EDBCFE9FFFA0EDBCFEAFF8C0EEF6EFD
:1018C000F36AF46A35D1D950FC0FE96EFF0EDA20C5
:1018D000EA6EEE50ED1013E1F90EDBCFE9FFFA0EE0
:1018E000DBCFEAFF040EEF6EFC0EDBCF00F0FD0E47
:1018F000DBCF01F000C0F3FF01C0F4FF19D1FC0EF3
:10190000DBCFE9FFFD0EDBCFEAFFEF50020813E06B
:10191000F90EDBCFE9FFFA0EDBCFEAFF010EEF6E27
:10192000FC0EDBCF00F0FD0EDBCF01F000C0F3FFBB
:1019300001C0F4FFFDD0C00EF214DF6E800ED01493
:101940003F09F216FC0EDBCFE9FFFD0EDBCFEAFF0D
:10195000EE52EF5004E0DE52010EDD6E02D0010EB9
:10196000DB6AFB0EDB50010A63E0010A01E0CBD029
:10197000010EDB5048E1FC0EDBCFE9FFFD0EDBCFB3
:10198000EAFF040EE926000EEA22020EEECFDBFF8C
:10199000030EEDCFDBFF020EDBCFE9FF030EDBCF43
:1019A000EAFF82C3EEFF83C3EDFF020EDBCF82F3BB
:1019B000030EDBCF83F3FC0EDBCFE9FFFD0EDBCFA5
:1019C000EAFFEF6AFC0EDBCFE9FFFD0EDBCFEAFF9B
:1019D000040EE926000EEA22B4C0EEFFB5C0EDFF0A
:1019E000FC0EDBCFB4F0FD0EDBCFB5F0DF50F21212
:1019F000F90EDBCFE9FFFA0EDBCFEAFFEF6AF36AFD
:101A0000F46A96D015D0DF50F212F90EDBCFE9FF61
:101A1000FA0EDBCFEAFF080EEF6EFC0EDBCF00F014
:101A2000FD0EDBCF01F000C0F3FF01C0F4FF80D05A
:101A3000FC0EDBCFE9FFFD0EDBCFEAFFEE52EF50ED
:101A400016E0040EE66E000EE66EE66AFC0EDBCFD4
:101A5000E6FFFD0EDBCFE6FFA1EC02F0006E050E07
:101A6000E15C02E2E16AE552E16E0050E1D7FC0E72
:101A7000DBCFE9FFFD0EDBCFEAFF040EE926000E07
:101A8000EA22020EEECFDBFF030EEDCFDBFF020EEC
:101A9000DBCFE9FF030EDBCFEAFF82C3EEFF83C398
:101AA000EDFF020EDBCF82F3030EDBCF83F3FC0EE0
:101AB000DBCFE9FFFD0EDBCFEAFFEF6AFC0EDBCFE9
:101AC000E9FFFD0EDBCFEAFF040EE926000EEA2255
:101AD000B4C0EEFFB5C0EDFFFC0EDBCFB4F0FD0EE1
:101AE000DBCFB5F0DF50F212010EDB0402E1C8ECEF
:101AF00006F0F90EDBCFE9FFFA0EDBCFEAFFEF6A63
:101B0000F36AF46A15D0DF50F212F90EDBCFE9FF69
:101B1000FA0EDBCFEAFF070EEF6EFC0EDBCF00F014
:101B2000FD0EDBCF01F000C0F3FF01C0F4FF00D0D9
:101B3000040EE15C02E2E16AE552E16EE552E5CFB6
:101B4000DAFFE7CFD9FF1200D9CFE6FFDACFE6FF01
:101B5000E1CFD9FFE2CFDAFFE652E652E652D950A2
:101B6000FC0FE96EFF0EDA20EA6EEE50ED1002E196
:101B7000040E68D0FC0EDBCFE9FFFD0EDBCFEAFFE1
:101B8000EF50020802E0010E5DD0C00EF214DF6ECD
:101B9000800ED0143F09F216FC0EDBCFE9FFFD0EDC
:101BA000DBCFEAFF040EE926000EEA22010EEECF9B
:101BB000DBFF020EEDCFDBFF010EDBCFE9FF020EF4
:101BC000DBCFEAFF020EE926000EEA22EECF00F09C
:101BD000EFCF01F0010EDBCFE9FF020EDBCFEAFF12
:101BE000060EE926000EEA2200C0EEFF01C0EDFF5E
:101BF000010EDBCFE9FF020EDBCFEAFF020EE92682
:101C0000000EEA22EECF00F0EFCF01F0010EDBCFA5
:101C1000E9FF020EDBCFEAFF080EE926000EEA22FA
:101C200000C0EEFF01C0EDFF010EDBCFE9FF020EA9
:101C3000DBCFEAFF0C0EEB6A0D0EEB6ADF50F212FF
:101C4000000E00D0E552E552E552E552E5CFDAFF4D
:101C5000E7CFD9FF1200D9CFE6FFDACFE6FFE1CF19
:101C6000D9FFE2CFDAFFE652E652E652E652E652FA
:101C70000101745100080BE2F80EDBCFE9FFF90E09
:101C8000DBCFEAFF020EEF6EF36AF46A52D1D9504D
:101C9000FC0FE96EFF0EDA20EA6EEE50ED100BE15C
:101CA000F80EDBCFE9FFF90EDBCFEAFF040EEF6E93
:101CB000F36AF46A3ED1FC0EDBCFE9FFFD0EDBCF09
:101CC000EAFFEF5002080BE0F80EDBCFE9FFF90E58
:101CD000DBCFEAFF010EEF6EF36AF46A2AD1C00E81
:101CE000F214DF6E800ED0143F09F216FC0EDBCF2B
:101CF000E9FFFD0EDBCFEAFF040EE926000EEA2223
:101D0000030EEECFDBFF040EEDCFDBFF030EDBCFC8
:101D1000E9FF040EDBCFEAFF0C0EE926000EEA22F3
:101D2000000ED880EE54000EED5401E37BD0030E7C
:101D3000DBCFE9FF040EDBCFEAFF080EE926000E39
:101D4000EA22EECFF3FFEDCFF4FF020EEE26000EF7
:101D5000EF22F3CFE9FFF4CFEAFF010EEECFDBFF76
:101D6000020EEDCFDBFF030EDBCFE9FF040EDBCF6E
:101D7000EAFF0C0EE926000EEA22EE06000EEF5AEC
:101D8000030EDBCFE9FF040EDBCFEAFF080EE926E6
:101D9000000EEA22EECF00F0EFCF01F0030EDBCF12
:101DA000E9FF040EDBCFEAFF040EE926000EEA226B
:101DB000EECF02F0EFCF03F00250001802E1035023
:101DC00001181CE1030EDBCFE9FF040EDBCFEAFFB5
:101DD000020EE926000EEA22EECF00F0EFCF01F06E
:101DE000030EDBCFE9FF040EDBCFEAFF080EE92686
:101DF000000EEA2200C0EEFF01C0EDFFDF50F2123C
:101E0000F80EDBCFE9FFF90EDBCFEAFFEF6A010E38
:101E1000DBCF00F0020EDBCF01F000C0F3FF01C00A
:101E2000F4FF87D0E6C1E9FFE7C1EAFF180EE92613
:101E3000000EEA22EF84E6C1E9FFE7C1EAFF160ED1
:101E4000E926000EEA22FA0EDBCFEEFFFB0EDBCF17
:101E5000EDFFFC0EDBCFE6FFFD0EDBCFE6FFD2ECA5
:101E600003F0E552E552DF50F212C8EC06F0C00E66
:101E7000F214DF6E800ED0143F09F216E6C1E9FFBE
:101E8000E7C1EAFF140EE926000EEA22010EEECFAA
:101E9000DBFF020EEDCFDBFFD950010FE96E000E24
:101EA000DA20EA6EEE50ED102DE0E6C1E9FFE7C161
:101EB000EAFF140EEB6A150EEB6AE6C1E9FFE7C113
:101EC000EAFF180EE926000EEA22EF6AE6C1E9FFF2
:101ED000E7C1EAFF120EEB6A130EEB6ADF50F21253
:101EE000F80EDBCFE9FFF90EDBCFEAFFEF6A010E58
:101EF000DBCF00F0020EDBCF01F000C0F3FF01C02A
:101F0000F4FF17D0FC0EDBCFE6FFFD0EDBCFE6FFC4
:101F100041EC04F0E552E552DF50F212F80EDBCF4F
:101F2000E9FFF90EDBCFEAFF0A0EEF6EF36AF46AFF
:101F300000D0050EE15C02E2E16AE552E16EE55295
:101F4000E5CFDAFFE7CFD9FF1200D9CFE6FFDACF2E
:101F5000E6FFE1CFD9FFE2CFDAFFE652E652E652E2
:101F6000D950FC0FE96EFF0EDA20EA6EEE50ED104C
:101F700002E1040EE4D0D950FA0FE96EFF0EDA2028
:101F8000EA6EEE50ED1002E1030ED9D0FC0EDBCF6D
:101F9000E9FFFD0EDBCFEAFFEF50020802E0010E81
:101FA000CED0C00EF214DF6E800ED0143F09F216B0
:101FB000FC0EDBCFE9FFFD0EDBCFEAFFEE52EF5068
:101FC0001EE0040EE66EFA0EDBCFE6FFFB0EDBCF63
:101FD000E6FFFC0EDBCFE6FFFD0EDBCFE6FFA1EC5C
:101FE00002F0006E050EE15C02E2E16AE552E16E8C
:101FF0000050DF50F212C8EC06F0000EA0D0FC0E2C
:10200000DBCFE9FFFD0EDBCFEAFF040EE926000E71
:10201000EA22010EEECFDBFF020EEDCFDBFF010E59
:10202000DBCFE9FF020EDBCFEAFF0C0EE926000E44
:10203000EA22EECF00F0EFCF01F0010EDBCFE9FF97
:10204000020EDBCFEAFF0A0EE926000EEA22EECFEF
:1020500002F0EFCF03F00250005C0350015804E39C
:10206000DF50F2121E0E6BD0010EDBCFE9FF020E25
:10207000DBCFEAFF060EE926000EEA22EECFF3FFE1
:10208000EDCFF4FF020EEE26000EEF22F3CFE9FFB4
:10209000F4CFEAFFFA0EDBCFEEFFFB0EDBCFEDFF56
:1020A000010EDBCFE9FF020EDBCFEAFF0C0EE926C3
:1020B000000EEA22EE2A000EEF22010EDBCFE9FF2E
:1020C000020EDBCFEAFF060EE926000EEA22EECF73
:1020D00000F0EFCF01F0010EDBCFE9FF020EDBCF06
:1020E000EAFF040EE926000EEA22EECF02F0EFCF5F
:1020F00003F00250001802E1035001181CE1010E28
:10210000DBCFE9FF020EDBCFEAFF020EE926000E6D
:10211000EA22EECF00F0EFCF01F0010EDBCFE9FFB6
:10212000020EDBCFEAFF060EE926000EEA2200C00F
:10213000EEFF01C0EDFFDF50F212000E00D0E552BD
:10214000E552E552E552E5CFDAFFE7CFD9FF1200BD
:10215000D9CFE6FFDACFE6FFE1CFD9FFE2CFDAFF52
:10216000E652E652E652D950FC0FE96EFF0EDA2035
:10217000EA6EEE50ED1002E1040EEAD0D950FA0FEB
:10218000E96EFF0EDA20EA6EEE50ED1002E1030E6A
:10219000DFD0FC0EDBCFE9FFFD0EDBCFEAFFEF5017
:1021A000020802E0010ED4D0C00EF214DF6E800EE1
:1021B000D0143F09F216FC0EDBCFE9FFFD0EDBCF9A
:1021C000EAFFEE52EF501EE0040EE66EFA0EDBCF91
:1021D000E6FFFB0EDBCFE6FFFC0EDBCFE6FFFD0EDE
:1021E000DBCFE6FFA1EC02F0006E050EE15C02E23F
:1021F000E16AE552E16E0050DF50F212C8EC06F0E1
:10220000000EA6D0FC0EDBCFE9FFFD0EDBCFEAFF10
:10221000040EE926000EEA22010EEECFDBFF020ECD
:10222000EDCFDBFF010EDBCFE9FF020EDBCFEAFFD4
:102230000C0EE926000EEA22EECF00F0EFCF01F0FF
:10224000010EDBCFE9FF020EDBCFEAFF0A0EE92623
:10225000000EEA22EECF02F0EFCF03F00250005C56
:102260000350015804E3DF50F2121E0E71D0010E2C
:10227000DBCFE9FF020EDBCFEAFF080EE926000EF6
:10228000EA22EECF00F0EFCF01F0010EDBCFE9FF45
:10229000020EDBCFEAFF020EE926000EEA22EECFA5
:1022A00002F0EFCF03F00250001802E103500118D2
:1022B0001CE1010EDBCFE9FF020EDBCFEAFF040ECB
:1022C000E926000EEA22EECF00F0EFCF01F0010E7A
:1022D000DBCFE9FF020EDBCFEAFF080EE926000E96
:1022E000EA2200C0EEFF01C0EDFF010EDBCFE9FFE7
:1022F000020EDBCFEAFF080EE926000EEA22020EEC
:10230000EE5E000EEF5A010EDBCFE9FF020EDBCFCF
:10231000EAFF080EE926000EEA22EE50EFCFEAFFB0
:10232000E96EFA0EDBCFEEFFFB0EDBCFEDFF010E09
:10233000DBCFE9FF020EDBCFEAFF0C0EE926000E31
:10234000EA22EE2A000EEF22DF50F212000E00D039
:10235000E552E552E552E552E5CFDAFFE7CFD9FF86
:102360001200D9CFE6FFDACFE6FFE1CFD9FFE2CF07
:10237000DAFFE652E652E652D950FC0FE96EFF0E44
:10238000DA20EA6EEE50ED1002E1040E6ED1D95063
:10239000FA0FE96EFF0EDA20EA6EEE50ED1002E160
:1023A000030E63D1FC0EDBCFE9FFFD0EDBCFEAFFAE
:1023B000EF50020802E0010E58D1C00EF214DF6E99
:1023C000800ED0143F09F216FC0EDBCFE9FFFD0EA4
:1023D000DBCFEAFFEE52EF5044E0F90EDBA023D052
:1023E000FC0EDBCFE9FFFD0EDBCFEAFFEE52EF5034
:1023F00019E0040EE66EFA0EDBCFE6FFFB0EDBCF34
:10240000E6FFFC0EDBCFE6FFFD0EDBCFE6FFA1EC27
:1024100002F0006E050EE15C02E2E16AE552E16E57
:102420000050DED718D0040EE66EFA0EDBCFE6FFC2
:10243000FB0EDBCFE6FFFC0EDBCFE6FFFD0EDBCFB6
:10244000E6FFA1EC02F0006E050EE15C02E2E16A3B
:10245000E552E16E0050DF50F212C8EC06F0000EBB
:1024600004D1FC0EDBCFE9FFFD0EDBCFEAFF040E4B
:10247000E926000EEA22010EEECFDBFF020EEDCFC1
:10248000DBFF010EDBCFE9FF020EDBCFEAFF0C0E14
:10249000E926000EEA22EECF00F0EFCF01F0010EA8
:1024A000DBCFE9FF020EDBCFEAFF0A0EE926000EC2
:1024B000EA22EECF02F0EFCF03F00250005C0350AF
:1024C000015804E3DF50F2121E0ECFD0F90EDBA24A
:1024D00061D0010EDBCFE9FF020EDBCFEAFF080E71
:1024E000E926000EEA22EECF00F0EFCF01F0010E58
:1024F000DBCFE9FF020EDBCFEAFF020EE926000E7A
:10250000EA22EECF02F0EFCF03F00250001802E112
:10251000035001181CE1010EDBCFE9FF020EDBCFF7
:10252000EAFF040EE926000EEA22EECF00F0EFCF1C
:1025300001F0010EDBCFE9FF020EDBCFEAFF080E50
:10254000E926000EEA2200C0EEFF01C0EDFF010EF9
:10255000DBCFE9FF020EDBCFEAFF080EE926000E13
:10256000EA22020EEE5E000EEF5A010EDBCFE9FF0B
:10257000020EDBCFEAFF080EE926000EEA22EE503B
:10258000EFCFEAFFE96EFA0EDBCFEEFFFB0EDBCFFB
:10259000EDFF5AD0010EDBCFE9FF020EDBCFEAFFE1
:1025A000060EE926000EEA22EECFF3FFEDCFF4FF90
:1025B000020EEE26000EEF22F3CFE9FFF4CFEAFF82
:1025C000FA0EDBCFEEFFFB0EDBCFEDFF010EDBCF14
:1025D000E9FF020EDBCFEAFF060EE926000EEA2233
:1025E000EECF00F0EFCF01F0010EDBCFE9FF020EDE
:1025F000DBCFEAFF040EE926000EEA22EECF02F05E
:10260000EFCF03F00250001802E1035001181CE163
:10261000010EDBCFE9FF020EDBCFEAFF020EE92657
:10262000000EEA22EECF00F0EFCF01F0010EDBCF7B
:10263000E9FF020EDBCFEAFF060EE926000EEA22D2
:1026400000C0EEFF01C0EDFF010EDBCFE9FF020E7F
:10265000DBCFEAFF0C0EE926000EEA22EE2A000E7E
:10266000EF22DF50F212000E00D0E552E552E552A3
:10267000E552E5CFDAFFE7CFD9FF1200D9CFE6FF69
:10268000DACFE6FFE1CFD9FFE2CFDAFF070EE12490
:1026900002E3E168E652E16ED950FC0FE96EFF0EED
:1026A000DA20EA6EEE50ED1002E1040EFFD0FC0ECF
:1026B000DBCFE9FFFD0EDBCFEAFFEF50020802E0BF
:1026C000010EF4D0C00EF214DF6E800ED0143F095C
:1026D000F216FC0EDBCFE9FFFD0EDBCFEAFFEE5278
:1026E000EF50E66EFA0EDBCFE9FFFB0EDBCFEAFF21
:1026F000080EE926000EEA22E552E750EF6EFC0EC6
:10270000DBCFE9FFFD0EDBCFEAFF060EE926000E68
:10271000EA22E9CF00F0EACF01F0030E00C0DBFFB0
:10272000040E01C0DBFFFA0EDBCFE9FFFB0EDBCFAF
:10273000EAFF060EE926000EEA22E9CF00F0EACF12
:1027400001F0050E00C0DBFF060E01C0DBFF030E2B
:10275000DBCFE9FFDB2A040EDBCFEAFF01E3DB2A54
:10276000EF50E66E050EDBCFE9FFDB2A060EDBCF6E
:10277000EAFF01E3DB2AE552E750EF6E030EDBCF01
:10278000E9FFDB2A040EDBCFEAFF01E3DB2AEF508F
:10279000E66E050EDBCFE9FFDB2A060EDBCFEAFF94
:1027A00001E3DB2AE552E750EF6EFC0EDBCFE9FFD9
:1027B000FD0EDBCFEAFF040EE926000EEA22010E31
:1027C000EECFDBFF020EEDCFDBFF010EDBCFE9FF2B
:1027D000020EDBCFEAFF0C0EE926000EEA22000E05
:1027E000D880EE54000EED541DE2010EDBCFE9FF60
:1027F000020EDBCFEAFF080EE926000EEA22EE50B9
:10280000EFCFEAFFE96EEECF00F0EFCF01F0FA0E66
:10281000DBCFE9FFFB0EDBCFEAFF00C0EEFF01C01C
:10282000EDFF08D0FA0EDBCFE9FFFB0EDBCFEAFFAE
:10283000EE6AED6A010EDBCFE9FF020EDBCFEAFFA5
:102840000C0EE926000EEA22EECF00F0EFCF01F0E9
:10285000FA0EDBCFE9FFFB0EDBCFEAFF020EE92623
:10286000000EEA2200C0EEFF01C0EDFF010EDBCF3B
:10287000E9FF020EDBCFEAFF0A0EE926000EEA228C
:10288000EECF00F0EFCF01F0FA0EDBCFE9FFFB0E49
:10289000DBCFEAFF040EE926000EEA2200C0EEFFBD
:1028A00001C0EDFFDF50F212000E00D0006E070EE7
:1028B000E15C02E2E16AE552E16E0050E552E5CFEB
:1028C000DAFFE7CFD9FF1200D9CFE6FFDACFE6FF74
:1028D000E1CFD9FFE2CFDAFF060EE12402E3E1689F
:1028E000E652E16ED950020FE96EDACFEAFF000E30
:1028F000EA22840EEE6E030EED6ED950040FE96EDF
:10290000DACFEAFF000EEA22920EEE6E030EED6EB3
:10291000DE6ADD6ADECF00F0DDCF01F0026A036A15
:10292000D8900350000A08E6010E005C000E015822
:10293000000E0258000E035825E2020EDBCFE9FF1D
:10294000030EDBCFEAFF040EDBCFEEFF050EDBCF7D
:10295000EDFFD950020FE96E000EDA20EA6E0E0E7E
:10296000EE26000EEF22D950040FE96E000EDA2099
:10297000EA6E0E0EEE26000EEF22DF2A010E01E3B4
:10298000DB2AC8D7020EDBCFE9FF030EDBCFEAFF5D
:10299000EE6AED6A0301840E826F030E836F060EEA
:1029A000E15C02E2E16AE552E16EE552E5CFDAFF71
:1029B000E7CFD9FF1200D9CFE6FFDACFE6FFE1CFAC
:1029C000D9FFE2CFDAFFE652E652E652D950FC0FC9
:1029D000E96EFF0EDA20EA6EEE50ED1003E1F36AC5
:1029E000F46A49D0FC0EDBCFE9FFFD0EDBCFEAFF36
:1029F000EF50030803E0F36AF46A3DD0C00EF2140E
:102A0000DF6E800ED0143F09F216FC0EDBCFE9FF1B
:102A1000FD0EDBCFEAFF020EE926000EEA22010ED0
:102A2000EECFDBFF020EEDCFDBFFD950010FE96ED9
:102A3000000EDA20EA6E000ED880EE54000EED543F
:102A40000DE2FC0EDBCFE9FFFD0EDBCFEAFF020E4D
:102A5000E926000EEA22EE06000EEF5ADF50F212CF
:102A6000010EDBCF00F0020EDBCF01F000C0F3FF60
:102A700001C0F4FF00D0E552E552E552E552E5CF42
:102A8000DAFFE7CFD9FF1200D9CFE6FFDACFE6FFB2
:102A9000E1CFD9FFE2CFDAFFE652E652E65201017A
:102AA0007451000803E2F36AF46A5FD0C00EF214B6
:102AB000DF6E800ED0143F09F216010EB4C0DBFFAA
:102AC000020EB5C0DBFF0001B451B5110CE0B4C07B
:102AD000E9FFB5C0EAFF040EE926000EEA22EECFB8
:102AE000B4F0EDCFB5F0DF50F212D950010FE96E1E
:102AF000000EDA20EA6EEE50ED102CE0010EDBCF76
:102B0000E9FF020EDBCFEAFF030EEF6E010EDBCF13
:102B1000E9FF020EDBCFEAFF020EE926000EEA22F1
:102B2000FC0EDBCFEEFFFD0EDBCFEDFF010EDBCFAA
:102B3000E9FF020EDBCFEAFF040EEB6A050EEB6A3B
:102B4000010EDBCFE6FF020EDBCFE6FF97EC04F0D1
:102B5000E552E552010EDBCF00F0020EDBCF01F0B3
:102B600000C0F3FF01C0F4FF00D0E552E552E5528A
:102B7000E552E5CFDAFFE7CFD9FF1200D9CFE6FF64
:102B8000DACFE6FFE1CFD9FFE2CFDAFFE652E65235
:102B900001017451000813E2F90EDBCFE9FFFA0ED0
:102BA000DBCFEAFF8C0EEF6EFC0EDBCF00F0FD0EEC
:102BB000DBCF01F000C0F3FF01C0F4FFF5D0D95026
:102BC000FC0FE96EFF0EDA20EA6EEE50ED1013E115
:102BD000F90EDBCFE9FFFA0EDBCFEAFF040EEF6E52
:102BE000FC0EDBCF00F0FD0EDBCF01F000C0F3FFE9
:102BF00001C0F4FFD9D0FC0EDBCFE9FFFD0EDBCF27
:102C0000EAFFEF50030813E0F90EDBCFE9FFFA0EFD
:102C1000DBCFEAFF010EEF6EFC0EDBCF00F0FD0E06
:102C2000DBCF01F000C0F3FF01C0F4FFBDD0C00E48
:102C3000F214DF6E800ED0143F09F216FC0EDBCFCB
:102C4000E9FFFD0EDBCFEAFFEE52EF5004E0DE526B
:102C5000010EDD6E02D0010EDB6AFB0EDB50010AB5
:102C600043E0010A01E08BD0010EDB5028E1FC0EAD
:102C7000DBCFE9FFFD0EDBCFEAFFEF6AFC0EDBCF17
:102C8000E9FFFD0EDBCFEAFF040EE926000EEA2283
:102C9000B4C0EEFFB5C0EDFFFC0EDBCFB4F0FD0E0F
:102CA000DBCFB5F0DF50F212F90EDBCFE9FFFA0E01
:102CB000DBCFEAFFEF6AF36AF46A76D015D0DF5013
:102CC000F212F90EDBCFE9FFFA0EDBCFEAFF080EB6
:102CD000EF6EFC0EDBCF00F0FD0EDBCF01F000C08D
:102CE000F3FF01C0F4FF60D0FC0EDBCFE9FFFD0E67
:102CF000DBCFEAFFEE52EF5016E0010EE66E000E5B
:102D0000E66EE66AFC0EDBCFE6FFFD0EDBCFE6FFEC
:102D1000A1EC02F0006E050EE15C02E2E16AE55210
:102D2000E16E0050E1D7FC0EDBCFE9FFFD0EDBCFFB
:102D3000EAFFEF6AFC0EDBCFE9FFFD0EDBCFEAFF17
:102D4000040EE926000EEA22B4C0EEFFB5C0EDFF86
:102D5000FC0EDBCFB4F0FD0EDBCFB5F0DF50F2128E
:102D6000010EDB0402E1C8EC06F0F90EDBCFE9FF4F
:102D7000FA0EDBCFEAFFEF6AF36AF46A15D0DF5090
:102D8000F212F90EDBCFE9FFFA0EDBCFEAFF070EF6
:102D9000EF6EFC0EDBCF00F0FD0EDBCF01F000C0CC
:102DA000F3FF01C0F4FF00D0E552E552E552E5CF54
:102DB000DAFFE7CFD9FF1200D9CFE6FFDACFE6FF7F
:102DC000E1CFD9FFE2CFDAFFE652010174510008EA
:102DD00009E2F80EDBCFE9FFF90EDBCFEAFF020EC6
:102DE000EF6EACD0D950FC0FE96EFF0EDA20EA6E20
:102DF000EE50ED1009E1F80EDBCFE9FFF90EDBCF65
:102E0000EAFF040EEF6E9AD0FC0EDBCFE9FFFD0E59
:102E1000DBCFEAFFEF50030809E0F80EDBCFE9FF54
:102E2000F90EDBCFEAFF010EEF6E88D0C00EF21470
:102E3000DF6E800ED0143F09F216FC0EDBCFE9FFE7
:102E4000FD0EDBCFEAFF020EE926000EEA22000E9D
:102E5000D880EE54000EED5417E2FC0EDBCFE9FFF4
:102E6000FD0EDBCFEAFF020EE926000EEA22EE0697
:102E7000000EEF5ADF50F212F80EDBCFE9FFF90E29
:102E8000DBCFEAFFEF6A5AD0E6C1E9FFE7C1EAFF0C
:102E9000180EE926000EEA22EF80E6C1E9FFE7C13D
:102EA000EAFF160EE926000EEA22FA0EDBCFEEFF4D
:102EB000FB0EDBCFEDFFFC0EDBCFE6FFFD0EDBCF25
:102EC000E6FFD2EC03F0E552E552DF50F212C8EC17
:102ED00006F0C00EF214DF6E800ED0143F09F21619
:102EE000E6C1E9FFE7C1EAFF180EEB50010B15E060
:102EF000FC0EDBCFE6FFFD0EDBCFE6FF41EC04F07E
:102F0000E552E552DF50F212F80EDBCFE9FFF90E81
:102F1000DBCFEAFF0A0EEF6E11D0E6C1E9FFE7C191
:102F2000EAFF120EEB6A130EEB6ADF50F212F80E94
:102F3000DBCFE9FFF90EDBCFEAFFEF6AE552E5529E
:102F4000E5CFDAFFE7CFD9FF1200D9CFE6FFDACF1E
:102F5000E6FFE1CFD9FFE2CFDAFFE652D950FC0F0E
:102F6000E96EFF0EDA20EA6EEE50ED1002E1040E7B
:102F700065D0FC0EDBCFE9FFFD0EDBCFEAFFEF50A3
:102F8000030802E0010E5AD0C00EF214DF6E800E6C
:102F9000D0143F09F216FC0EDBCFE9FFFD0EDBCFAC
:102FA000EAFFEE52EF501BE0010EE66E000EE66EF9
:102FB000E66AFC0EDBCFE6FFFD0EDBCFE6FFA1EC01
:102FC00002F0006E050EE15C02E2E16AE552E16E9C
:102FD0000050DF50F212C8EC06F0000E2FD0FC0EAD
:102FE000DBCFE9FFFD0EDBCFEAFF020EE926000E84
:102FF000EA22EECF00F0EFCF01F0026AD890025043
:10300000000A06E6FF0E005CFF0E0158000E025893
:1030100011E2FC0EDBCFE9FFFD0EDBCFEAFF020E73
:10302000E926000EEA22EE2A000EEF22DF50F2120D
:10303000000E04D0DF50F212320E00D0E552E552FD
:10304000E5CFDAFFE7CFD9FF1200D9CFE6FFDACF1D
:10305000E6FFE1CFD9FFE2CFDAFFE652E652E652D1
:10306000E652E652D950FC0FE96EFF0EDA20EA6E06
:10307000EE50ED1002E1040E9AD0FC0EDBCFE9FF1A
:10308000FD0EDBCFEAFFEF50030802E0010E8FD008
:10309000C00EF214DF6E800ED0143F09F216FC0E43
:1030A000DBCFE9FFFD0EDBCFEAFFEE52EF50E66E1D
:1030B000FA0EDBCFE9FFFB0EDBCFEAFF040EE926B9
:1030C000000EEA22E552E750EF6EFC0EDBCFE9FF7F
:1030D000FD0EDBCFEAFF060EE926000EEA22E9CF5D
:1030E00000F0EACF01F0010E00C0DBFF020E01C0CC
:1030F000DBFFFA0EDBCFE9FFFB0EDBCFEAFF020EB0
:10310000E926000EEA22E9CF00F0EACF01F0030E33
:1031100000C0DBFF040E01C0DBFF010EDBCFE9FFC7
:10312000DB2A020EDBCFEAFF01E3DB2AEF50E66E7B
:10313000030EDBCFE9FFDB2A040EDBCFEAFF01E35E
:10314000DB2AE552E750EF6E010EDBCFE9FFDB2A09
:10315000020EDBCFEAFF01E3DB2AEF50E66E030E3F
:10316000DBCFE9FFDB2A040EDBCFEAFF01E3DB2A3A
:10317000E552E750EF6EFC0EDBCFE9FFFD0EDBCF33
:10318000EAFF020EE926000EEA22EECF00F0EFCFB2
:1031900001F0FA0EDBCFE9FFFB0EDBCFEAFF00C048
:1031A000EEFF01C0EDFFDF50F212000E00D0006E06
:1031B000050EE15C02E2E16AE552E16E0050E55283
:1031C000E5CFDAFFE7CFD9FF1200D9CFE6FFDACF9C
:1031D000E6FFE1CFD9FFE2CFDAFF090EE12402E3F7
:1031E000E168E652E16EFD0EDBCF00F0016A026A93
:1031F000036AD8900350000A08E60F0E005C000E28
:103200000158000E0258000E035804E3FD0EDB5077
:10321000FF0813E1FC0EDBCF04F0056A066A076ABB
:10322000D8900750000A08E60F0E045C000E0558FF
:10323000000E0658000E075802E32A0EEED1C00E0B
:10324000F214DF6E800ED0143F09F216FC0EEA6A0B
:10325000DB34FE0BEA36E96EEE0EE926010EEA22B9
:10326000EE50ED1005E0DF50F212280ED6D1D5D188
:10327000FC0EEA6ADB34FE0BEA36E96EEE0EE92656
:10328000010EEA22010EEE6EED6ADF50F212FC0E24
:10329000DB40E840E8401F0BE76E060EE7CFDBFFA0
:1032A000460E006E560E016E000E026E060EDBCF4D
:1032B00003F0046A056A00500324F36E01500420F1
:1032C000F46E02500520F86EF4CFF7FFF3CFF6FF4F
:1032D0000800080EF5CFDBFFFC0EDB50070BE76E96
:1032E000050EE7CFDBFF460E006E560E016E000E98
:1032F000026E050EDBCF03F0046A056A005003245A
:10330000F36E01500420F46E02500520F86EF4CFE5
:10331000F7FFF3CFF6FF0800070EF5CFDBFFC00E77
:10332000F214DF6E800ED0143F09F216FD0EDB5052
:10333000FF080AE1E6C1E9FFE7C1EAFF190EEB5019
:10334000E76EFD0EE7CFDBFFFD0EEA6ADB34FE0B16
:10335000EA36E96EEE0EE926010EEA22030EEECF02
:10336000DBFF040EEDCFDBFFD950030FE96E000E3B
:10337000DA20EA6EEE50ED1001E13FD1FD0EEA6A6F
:10338000DB34FE0BEA36E96EEE0EE926010EEA2288
:10339000EE6AED6A030EDBCFE9FF040EDBCFEAFF36
:1033A0001C0EE926000EEA22EFCF00F0030EDBCF61
:1033B000E9FF040EDBCFEAFF1B0EE926000EEA222E
:1033C000EF50EA6A7A0FE96E010EEA22EF5000141C
:1033D0003CE0030EDBCFE9FF040EDBCFEAFF1C0E5F
:1033E000E926000EEA22EF1C006E030EDBCFE9FF98
:1033F000040EDBCFEAFF1B0EE926000EEA22EF5097
:10340000EA6A7A0FE96E010EEA220050EF16EF50D9
:103410000DE1030EDBCFE9FF040EDBCFEAFF1D0E4B
:10342000E926000EEA22EF1C01017917080EDB5095
:1034300001017913060EDB50EA6A7A0FE96E010E7C
:10344000EA22070EDB50EF1280D0030EDBCFE9FF3C
:10345000040EDBCFEAFF120EE926000EEA22010E6F
:10346000EECFDBFF020EEDCFDBFFD950010FE96E8F
:10347000000EDA20EA6EEE50ED1067E0030EDBCFAF
:10348000E9FF040EDBCFEAFF1C0EE926000EEA225C
:10349000EF1C026E010EDBCFE9FF020EDBCFEAFF6D
:1034A000060EE926000EEA22E9CF00F0EACF01F08D
:1034B000030EDBCFE9FF040EDBCFEAFF1B0EE9268C
:1034C000000EEA22EF500F010024E96E000E0120E9
:1034D000EA6E0250EF16EF5015E1030EDBCFE9FF65
:1034E000040EDBCFEAFF1D0EE926000EEA22EF1CD8
:1034F000006E010EDBCFE9FF020EDBCFEAFFEE52DA
:103500000050EF16010EDBCFE9FF020EDBCFEAFF22
:10351000EE52080EDB50EF12010EDBCFE9FF020E78
:10352000DBCFEAFF060EE926000EEA22E9CF00F023
:10353000EACF01F0060EDB500F010024E96E000E09
:103540000120EA6E070EDB50EF12FC0EEA6ADB3454
:10355000FE0BEA36E96EEE0EE926010EEA22030EB4
:10356000DBCFEEFF040EDBCFEDFF030EDBCFE9FF79
:10357000040EDBCFEAFF190EE926000EEA22FC0E4C
:10358000DBCFEFFF030EDBCFE9FF040EDBCFEAFF5B
:103590001B0EE926000EEA22060EDBCFEFFF030E1C
:1035A000DBCFE9FF040EDBCFEAFF1A0EE926000E9F
:1035B000EA22050EDBCFEFFF030EDBCFE9FF040E9F
:1035C000DBCFEAFF1D0EE926000EEA22080EDBCF54
:1035D000EFFF030EDBCFE9FF040EDBCFEAFF1C0E8B
:1035E000E926000EEA22070EDBCFEFFFDF50F212D2
:1035F000C8EC06F0000E11D010D0FC0EEA6ADB34E5
:10360000FE0BEA36E96EEE0EE926010EEA22EE6ABC
:10361000ED6ADF50F212290E00D0006E090EE15C57
:1036200002E2E16AE552E16E0050E552E5CFDAFFD1
:10363000E7CFD9FF1200D9CFE6FFDACFE6FFE1CF1F
:10364000D9FFE2CFDAFFE652E652E652E652F60E34
:10365000DBCF00F0016A026A036A0334000E03182C
:1036600009E6D8800F0E0054000E0154000E0254DB
:10367000000E035402E22A0EA3D0C00EF214DF6E35
:10368000800ED0143F09F216F60EEA6ADB34FE0B08
:10369000EA36E96EEE0EE926010EEA22EE50ED1052
:1036A00001E08AD0F60EEA6ADB34FE0BEA36E96EF8
:1036B000EE0EE926010EEA22010EEE6EED6ADF50F3
:1036C000F212000EE66EE66AF70EDBCFE6FFF80EAA
:1036D000DBCFE6FFF90EDBCFE6FFFA0EDBCFE6FF2E
:1036E000FB0EDBCFE6FFFC0EDBCFE6FFFD0EDBCFF4
:1036F000E6FFE5EC24F0006E090EE15C02E2E16A0F
:10370000E552E16E0050DE52F3CFDEFFF4CFDDFF75
:10371000DD52000EE66EE66A000EE66EE66AE66AC6
:10372000E66AE66AE66A000EE66EE66A000EE66E95
:10373000E66A010EDBCFE6FF020EDBCFE6FFF60EF8
:10374000DBCFE6FF5DEC08F0006E0F0EE15C02E2FD
:10375000E16AE552E16E0050E76E030EE7CFDBFF52
:10376000030EDB5011E1C00EF214DF6E800ED01498
:103770003F09F21601017D2BDF50F21201017C0599
:1037800002E1C8EC06F015D0C00EF214DF6E800E18
:10379000D0143F09F216F60EEA6ADB34FE0BEA3665
:1037A000E96EEE0EE926010EEA22EE6AED6ADF50BE
:1037B000F212030EDB5004D0DF50F212280E00D0BC
:1037C000006E040EE15C02E2E16AE552E16E005037
:1037D000E552E5CFDAFFE7CFD9FF1200D9CFE6FFF8
:1037E000DACFE6FFE1CFD9FFE2CFDAFFE652E652C9
:1037F000E652E652F60EDBCF00F0016A026A036A77
:103800000334000E031809E6D8800F0E0054000E92
:103810000154000E0254000E035402E22A0EDBD0C3
:10382000C00EF214DF6E800ED0143F09F216F60EB1
:10383000EA6ADB34FE0BEA36E96EEE0EE926010E8B
:10384000EA22EE50ED1001E0C2D0F60EEA6ADB3457
:10385000FE0BEA36E96EEE0EE926010EEA22010EB3
:10386000EE6EED6ADF50F212EA0EDB50010B04E15E
:10387000EA0EDB50020B17E0EE0EDBCFE6FFEF0E99
:10388000DBCFE6FFE66AF70EDBCFE6FFF80EDBCF15
:10389000E6FFD0EC2EF0006E050EE15C02E2E16A7C
:1038A000E552E16E0050EA0EDBCFE6FFEB0EDBCF18
:1038B000E6FFF70EDBCFE6FFF80EDBCFE6FFF90EF3
:1038C000DBCFE6FFFA0EDBCFE6FFFB0EDBCFE6FF3A
:1038D000FC0EDBCFE6FFFD0EDBCFE6FFE5EC24F0D0
:1038E000006E090EE15C02E2E16AE552E16E005011
:1038F000DE52F3CFDEFFF4CFDDFFDD52EA0EDBCF89
:10390000E6FFEB0EDBCFE6FFEC0EDBCFE6FFED0EC6
:10391000DBCFE6FFD950EE0FE96EFF0EDA20EA6E3C
:10392000EECFE6FFEECFE6FFEECFE6FFEFCFE6FF0E
:10393000F40EDBCFE6FFF50EDBCFE6FFF20EDBCFBA
:10394000E6FFF30EDBCFE6FF010EDBCFE6FF020E54
:10395000DBCFE6FFF60EDBCFE6FF5DEC08F0006E96
:103960000F0EE15C02E2E16AE552E16E0050E76EA3
:10397000030EE7CFDBFF030EDB5011E1C00EF214A4
:10398000DF6E800ED0143F09F21601017D2BDF504F
:10399000F21201017C0502E1C8EC06F015D0C00E60
:1039A000F214DF6E800ED0143F09F216F60EEA6AAA
:1039B000DB34FE0BEA36E96EEE0EE926010EEA2252
:1039C000EE6AED6ADF50F212030EDB5004D0DF50D6
:1039D000F212280E00D0006E040EE15C02E2E16AF1
:1039E000E552E16E0050E552E5CFDAFFE7CFD9FFAF
:1039F0001200D9CFE6FFDACFE6FFE1CFD9FFE2CF61
:103A0000DAFF060EE12402E3E168E652E16E01010D
:103A10007451000802E23F0EC5D1FD0EDBCF00F06D
:103A2000016A026A036A0F0E001805E1015003E102
:103A3000025001E1035002E13D0EB4D1FD0EDBCF97
:103A400000F0016A026A036AD8900350000A08E68F
:103A50000F0E005C000E0158000E0258000E0358B5
:103A600006E3FD0EDB50FF0802E02A0E9BD1C00EDC
:103A7000F214DF6E800ED0143F09F216FD0EDB50FB
:103A8000FF080AE1E6C1E9FFE7C1EAFF190EEB50C2
:103A9000E76EFD0EE7CFDBFFFD0EEA6ADB34FE0BBF
:103AA000EA36E96EEE0EE926010EEA22030EEECFAB
:103AB000DBFF040EEDCFDBFFD950030FE96E000EE4
:103AC000DA20EA6EEE50ED1001E168D1030EDBCF93
:103AD000E9FF040EDBCFEAFF1C0EE926000EEA2206
:103AE000EF1C006E030EDBCFE9FF040EDBCFEAFF15
:103AF0001B0EE926000EEA22EF50EA6A7A0FE96E01
:103B0000010EEA220050EF16EF500DE1030EDBCF5D
:103B1000E9FF040EDBCFEAFF1D0EE926000EEA22C4
:103B2000EF1C01017917030EDBCFE9FF040EDBCF99
:103B3000EAFF120EE926000EEA22010EEECFDBFFAD
:103B4000020EEDCFDBFFD950010FE96E000EDA2037
:103B5000EA6EEE50ED1044E0030EDBCFE9FF040EF9
:103B6000DBCFEAFF1C0EE926000EEA22EF1C026EF4
:103B7000010EDBCFE9FF020EDBCFEAFF060EE926DE
:103B8000000EEA22E9CF00F0EACF01F0030EDBCF0E
:103B9000E9FF040EDBCFEAFF1B0EE926000EEA2246
:103BA000EF500F010024E96E000E0120EA6E025072
:103BB000EF16EF5015E1030EDBCFE9FF040EDBCF6C
:103BC000EAFF1D0EE926000EEA22EF1C006E010E30
:103BD000DBCFE9FF020EDBCFEAFFEE520050EF161B
:103BE000030EDBCFE9FF040EDBCFEAFF160EEB6A14
:103BF000170EEB6A030EDBCFE9FF040EDBCFEAFF03
:103C0000180EE926000EEA22EF6A01017651006ED5
:103C1000016AD890015004E6FF0E005C000E0158C6
:103C200002E20101762BDF50F212A0EC02F0C00E8E
:103C3000F214DF6E800ED0143F09F21601017651A6
:103C4000000802E201017607030EDBCFE6FF040E57
:103C5000DBCFE6FFFDEC25F0E552E55201017D07E3
:103C6000FD0EEA6ADB34FE0BEA36E96EEE0EE9265B
:103C7000010EEA22EE6AED6A030EDBCFE9FF040EC5
:103C8000DBCFEAFF100EE926000EEA22EE50ED101F
:103C900023E1030EDBCFE9FF040EDBCFEAFF0E0EBC
:103CA000E926000EEA22EE50EFCFEAFFE96E100E91
:103CB000E926000EEA22EE6AED6A030EDBCFE9FF89
:103CC000040EDBCFEAFF0E0EE926000EEA22EECF4D
:103CD000ECF1EDCFEDF148D0030EDBCFE9FF040EA0
:103CE000DBCFEAFF0E0EE926000EEA22EECF00F04F
:103CF000EFCF01F0030EDBCFE9FF040EDBCFEAFFCD
:103D0000100EE926000EEA22EE50EFCFEAFFE96E30
:103D10000E0EE926000EEA2200C0EEFF01C0EDFF04
:103D2000030EDBCFE9FF040EDBCFEAFF100EE9261E
:103D3000000EEA22EECF00F0EFCF01F0030EDBCF52
:103D4000E9FF040EDBCFEAFF0E0EE926000EEA22A1
:103D5000EE50EFCFEAFFE96E100EE926000EEA22E0
:103D600000C0EEFF01C0EDFF030EDBCFE9FF040E44
:103D7000DBCFEAFF0E0EE926000EEA22E8C1EEFFD5
:103D8000E9C1EDFF030EDBCFE8F1040EDBCFE9F173
:103D9000DF50F212C8EC06F0000E04D0DF50F21231
:103DA0003C0E00D0006E060EE15C02E2E16AE552D4
:103DB000E16E0050E552E5CFDAFFE7CFD9FF120000
:103DC000D9CFE6FFDACFE6FFE1CFD9FFE2CFDAFFC6
:103DD000E652E652E652E652E652FD0EDBCF00F026
:103DE000016A026A036A0F0E001805E1015003E13F
:103DF000025001E1035002E13D0E6CD0FD0EDBCF1D
:103E000000F0016A026A036AD8900350000A08E6CB
:103E10000F0E005C000E0158000E0258000E0358F1
:103E200006E3FD0EDB50FF0802E02A0E53D0FD0E24
:103E3000DB50FF0816E1C00EF214DF6E800ED014C6
:103E40003F09F216E6C1E9FFE7C1EAFF1E0EEB509B
:103E5000E76E010EE7CFDBFFDF50F212010EDB5001
:103E600039D0C00EF214DF6E800ED0143F09F21666
:103E7000FD0EEA6ADB34FE0BEA36E96EEE0EE92649
:103E8000010EEA22030EEECFDBFF040EEDCFDBFFC7
:103E9000D950030FE96E000EDA20EA6EEE50ED10F5
:103EA0000FE0030EDBCFE9FF040EDBCFEAFF1E0EAF
:103EB000E926000EEA223E0EEF6E020EDB6A05D006
:103EC0000B0EF36E020EF3CFDBFFDF50F212020E89
:103ED000DB5000D0006E050EE15C02E2E16AE552C3
:103EE000E16E0050E552E5CFDAFFE7CFD9FF1200CF
:103EF000D9CFE6FFDACFE6FFE1CFD9FFE2CFDAFF95
:103F0000E652E652E652FD0EDBCF00F0016A026A8D
:103F1000036AD8900350000A08E60F0E005C000EFA
:103F20000158000E0258000E035802E32A0E83D0F7
:103F3000C00EF214DF6E800ED0143F09F216FD0E93
:103F4000EA6ADB34FE0BEA36E96EEE0EE926010E74
:103F5000EA22010EEECFDBFF020EEDCFDBFFD950E0
:103F6000010FE96E000EDA20EA6EEE50ED1004E16A
:103F7000DF50F212640E5FD0010EDBCFE9FF020EBC
:103F8000DBCFEAFF180EE926000EEA22EF50080BFD
:103F90004EE0010EDBCFE9FF020EDBCFEAFF180E89
:103FA000E926000EEA22EF96EF503DE1010EDBCF4D
:103FB000E9FF020EDBCFEAFF160EE926000EEA2229
:103FC000EE50ED1030E1010EDBCFE9FF020EDBCF4A
:103FD000EAFF1D0EE926000EEA22EF5001017913D7
:103FE000010EDBCFE9FF020EDBCFEAFF1C0EE92654
:103FF000000EEA22EFCF00F0010EDBCFE9FF020E48
:10400000DBCFEAFF1B0EE926000EEA22EF50EA6A38
:104010007A0FE96E010EEA220050EF12DF50F21221
:10402000C8EC06F002D0DF50F212000E04D0DF50D0
:10403000F212650E00D0E552E552E552E552E5CFA9
:10404000DAFFE7CFD9FF1200D9CFE6FFDACFE6FFDC
:10405000E1CFD9FFE2CFDAFF0D0EE12402E3E16800
:10406000E652E16EFD0EDBCF00F0016A026A036AE0
:104070000334000E031809E6D8800F0E0054000E1A
:104080000154000E0254000E035406E2FD0EDB50F4
:10409000FF0802E02A0EEAD0FB0EDBCFE9FFFC0EA0
:1040A000DBCFEAFFEE6AEE6AEE6AEE6AFB0EDBCF6A
:1040B000E9FFFC0EDBCFEAFF040EE926000EEA2240
:1040C000EE6AEE6AEE6AEE6AC00EF214DF6E800EE1
:1040D000D0143F09F216FD0EDB50FF080AE1E6C1DD
:1040E000E9FFE7C1EAFF190EEB50E76EFD0EE7CFDF
:1040F000DBFFFD0EEA6ADB34FE0BEA36E96EEE0EFC
:10410000E926010EEA22010EEECFDBFF020EEDCF13
:10411000DBFFD950010FE96E000EDA20EA6EEE5097
:10412000ED1004E1DF50F2120B0EA0D0010EDBCF38
:10413000E9FF020EDBCFEAFF0A0EE926000EEA22B3
:10414000EECF00F0EFCF01F00050010B04E1DF50A3
:10415000F212820E8BD0050EDB6A060EDB6A070EAA
:10416000DB6A080EDB6A010EDBCFE9FF020EDBCF54
:10417000EAFF060EE926000EEA22090EEECFDBFF6B
:104180000A0EEECFDBFF0B0EEECFDBFF0C0EEECFF9
:10419000DBFF010EDBCFE9FF020EDBCFEAFF040EEF
:1041A000E926000EEA22030EEECFDBFF040EEDCF70
:1041B000DBFFDF50F212030EDBCFE9FFDB06040E5C
:1041C000DBCFEAFF01E2DB06EF500CE1D950050F2F
:1041D000E96E000EDA20EA6EEE2A000EEE22EE22E2
:1041E000EE22E9D7FB0EDBCFE9FFFC0EDBCFEAFFC7
:1041F000050EDBCFEEFF060EDBCFEEFF070EDBCFAB
:10420000EEFF080EDBCFEEFF090EDBCF04F00A0E47
:10421000DBCF05F00B0EDBCF06F00C0EDBCF07F08B
:10422000D950050FE96E000EDA20EA6EEE50045CFC
:10423000006EEE500558016EEE500658026EEE50BC
:104240000758036EFB0EDBCFE9FFFC0EDBCFEAFF66
:10425000040EE926000EEA2200C0EEFF01C0EEFFC8
:1042600002C0EEFF03C0EEFF000E00D0006E0D0E88
:10427000E15C02E2E16AE552E16E0050E552E5CF11
:10428000DAFFE7CFD9FF1200D9CFE6FFDACFE6FF9A
:10429000E1CFD9FFE2CFDAFFE652E652E652E6522C
:1042A000FD0EDBCF00F0016A026A036A0F0E0018F0
:1042B00005E1015003E1025001E1035002E15B0E10
:1042C000A1D0FD0EDBCF00F0016A026A036AD8902C
:1042D0000350000A08E60F0E005C000E0158000EA5
:1042E0000258000E035806E3FD0EDB50FF0802E003
:1042F0002A0E88D0C00EF214DF6E800ED0143F0953
:10430000F216FD0EDB50FF080EE1E6C1E9FFE7C142
:10431000EAFF190EEB50E76EFD0EE7CFDBFFDE5232
:10432000010EDD6E11D0E6C1E9FFE7C1EAFF190E0B
:10433000EB50F36EFD0EDB50F35C04E1DE52010E38
:10434000DD6E02D0010EDB6AFD0EEA6ADB34FE0B85
:10435000EA36E96EEE0EE926010EEA22020EEECFF3
:10436000DBFF030EEDCFDBFFD950020FE96E000E2D
:10437000DA20EA6EEE50ED1004E1DF50F2125A0E30
:1043800041D0020EDBCFE9FF030EDBCFEAFF1C0EAC
:10439000E926000EEA22EF1C006E020EDBCFE9FFD9
:1043A000030EDBCFEAFF1B0EE926000EEA22EF50D8
:1043B000EA6A7A0FE96E010EEA220050EF16EF501A
:1043C0000DE1020EDBCFE9FF030EDBCFEAFF1D0E8E
:1043D000E926000EEA22EF1C01017917020EDBCF5D
:1043E000E9FF030EDBCFEAFF180EE926000EEA22F2
:1043F000EF86DF50F212010EDB0402E1C8EC06F09A
:10440000000E00D0006E040EE15C02E2E16AE552AB
:10441000E16E0050E552E5CFDAFFE7CFD9FF120099
:10442000D9CFE6FFDACFE6FFE1CFD9FFE2CFDAFF5F
:10443000E652D950FC0FE96EFF0EDA20EA6E000E4C
:10444000D880EE54000EED5439E2C00EF214DF6E47
:10445000800ED0143F09F216E6C1E9FFE7C1EAFF7A
:104460001C0EEB50E81C006EE6C1E9FFE7C1EAFF55
:104470001B0EEB50EA6A7A0FE96E010EEA22005039
:10448000EF16EF5009E1E6C1E9FFE7C1EAFF1D0EB3
:10449000EB50E81C01017917E6C1E9FFE7C1EAFF2B
:1044A000160EE926000EEA22FC0EDBCFEEFFFD0E13
:1044B000DBCFEDFFDF50F212C8EC06F0E552E5521B
:1044C000E5CFDAFFE7CFD9FF1200D9CFE6FFDACF89
:1044D000E6FFE1CFD9FFE2CFDAFF060EE12402E3E7
:1044E000E168E652E16EFD0EDB50000815E3FC0EBC
:1044F000DB50000811E3FB0EDB5000080DE3D95040
:10450000F90FE96EFF0EDA20EA6E000ED880EE5445
:10451000000EED5401E337D1FC0EDB503B0802E204
:10452000510E33D1FB0EDB503B0802E2520E2DD16F
:10453000D950F90FE96EFF0EDA20EA6EE70ED88047
:10454000EE54030EED5402E2530E1FD1FD0EDBCFED
:1045500004F0056A066A076A100E1D6E0E0E1E6EC6
:104560001F6A206A04C018F005C019F006C01AF0CE
:1045700007C01BF0A7EC2CF014C004F015C005F028
:1045800016C006F017C007F0FC0EDBCF08F0096A72
:104590000A6A0B6A3C0E1D6E1E6A1F6A206A08C0FA
:1045A00018F009C019F00AC01AF00BC01BF0A7ECF4
:1045B0002CF014C008F015C009F016C00AF017C09E
:1045C0000BF008500426095005220A5006220B5011
:1045D0000722FB0EDBCF0CF00D6A0E6A0F6A045047
:1045E0000C24006E05500D20016E06500E20026E48
:1045F00007500F20036E640E1D6E1E6A1F6A206A2C
:1046000000C018F001C019F002C01AF003C01BF07E
:10461000A7EC2CF014C000F015C001F016C002F099
:1046200017C003F0F90EDBCF10F0FA0EDBCF11F05C
:10463000126A136A050E1026000E1122000E1222B5
:10464000000E1322640E1D6E1E6A1F6A206A10C0BF
:1046500018F011C019F012C01AF013C01BF0A7EC2B
:104660002CF014C010F015C011F016C012F017C0D5
:1046700013F0E80E1D6E030E1E6E1F6A206A10C036
:1046800018F011C019F012C01AF013C01BF018EC8A
:104690002EF018C010F019C011F01AC012F01BC093
:1046A00013F0105000261150012212500222135014
:1046B000032200C0DFFF010E01C0DBFF020E02C0BB
:1046C000DBFF030E03C0DBFFD9CFE9FFDACFEAFF40
:1046D000EECF18F0EECF19F0EECF1AF0EFCF1BF0BF
:1046E0001D6A1E6A010E1F6E206A18EC2EF0040E61
:1046F00018C0DBFF050E19C0DBFFD9CFE9FFDACF09
:10470000EAFFEECF18F0EECF19F0EECF1AF0EFCFB0
:104710001BF01D6A1E6A010E1F6E206A18EC2EF037
:1047200014C0DEFF15C0DEFF16C0DEFF17C0DDFFC0
:10473000DD52DD52000EDBCFE6FF010EDBCFE6FFE0
:104740006FDEE552E552D950040FE96E000EDA2013
:10475000EA6E000ED880EE54000EED5412E2E66AC6
:10476000800EE66E5DDEE552E552E66A800EE66E8C
:1047700057DEE552E552040EDB06050E01E2DB06CC
:10478000E2D7000E02D0540E00D0006E060EE15C9F
:1047900002E2E16AE552E16E0050E552E5CFDAFF50
:1047A000E7CFD9FF1200D9CFE6FFDACFE6FFE1CF9E
:1047B000D9FFE2CFDAFFE652E652E652FD0EDBCF3A
:1047C00000F0016A026A036AD8900350000A08E602
:1047D0000F0E005C000E0158000E0258000E035828
:1047E00002E32A0E81D0C00EF214DF6E800ED014C8
:1047F0003F09F216FD0EEA6ADB34FE0BEA36E96E7B
:10480000EE0EE926010EEA22010EEECFDBFF020ECC
:10481000EDCFDBFFD950010FE96E000EDA20EA6E12
:10482000EE50ED105DE0010EDBCFE9FF020EDBCFB5
:10483000EAFF160EE926000EEA22EE50ED104CE0DB
:10484000010EDBCFE9FF020EDBCFEAFF160EEB6AAB
:10485000170EEB6A010EDBCFE9FF020EDBCFEAFF9A
:10486000180EE926000EEA22EF50080B30E1010E87
:10487000DBCFE9FF020EDBCFEAFF1D0EE926000EBB
:10488000EA22EF5001017913010EDBCFE9FF020E9E
:10489000DBCFEAFF1C0EE926000EEA22EFCF00F084
:1048A000010EDBCFE9FF020EDBCFEAFF1B0EE9268C
:1048B000000EEA22EF50EA6A7A0FE96E010EEA2250
:1048C0000050EF12DF50F212C8EC06F002D0DF50B9
:1048D000F212000E09D004D0DF50F212500E04D0B4
:1048E000DF50F2120B0E00D0E552E552E552E552D0
:1048F000E5CFDAFFE7CFD9FF1200D9CFE6FFDACF55
:10490000E6FFE1CFD9FFE2CFDAFFE652E652E65208
:10491000E652E652C00EF214DF6E800ED0143F094C
:10492000F216010EA0C3DBFF020EA1C3DBFF030ED4
:10493000A2C3DBFF040EA3C3DBFFDF50F212010EA4
:10494000DBCF00F0020EDBCF01F0030EDBCF02F075
:10495000040EDBCF03F000C018F001C019F002C054
:104960001AF003C01BF000D0050EE15C02E2E16A20
:10497000E552E16EE552E5CFDAFFE7CFD9FF12004D
:10498000D9CFE6FFDACFE6FFE1CFD9FFE2CFDAFFFA
:10499000E652C00EF214DF6E800ED0143F09F216FC
:1049A000FA0EDBCFA0F3FB0EDBCFA1F3FC0EDBCFC7
:1049B000A2F3FD0EDBCFA3F3DF50F212E552E55276
:0A49C000E5CFDAFFE7CFD9FF1200C0
:0649CA00D9CFE6FFDACFB1
:1049D000E6FFE1CFD9FFE2CFDAFFE652E652F70E6B
:1049E000DBCFDEFFDBCFDDFFDFCFE9FFDF2A010E0C
:1049F000DBCFEAFF01E3DB2AF90EDBCFEFFFDFCFEE
:104A0000E9FFDF2A010EDBCFEAFF01E3DB2AFA0E22
:104A1000DBCFEFFFDFCFE9FFDF2A010EDBCFEAFFBD
:104A200001E3DB2AEF68DFCFE9FFDF2A010EDBCFEE
:104A3000EAFF01E3DB2A1A0EEF6EDFCFE9FFDF2A80
:104A4000010EDBCFEAFF01E3DB2A1B0EEF6EDFCFA7
:104A5000E9FFDF2A010EDBCFEAFF01E3DB2A1C0EB0
:104A6000EF6EDFCFE9FFDF2A010EDBCFEAFF01E3C4
:104A7000DB2A1D0EEF6EDFCFE9FFDF2A010EDBCF51
:104A8000EAFF01E3DB2A1E0EEF6EDFCFE9FFDF2A2C
:104A9000010EDBCFEAFF01E3DB2A1F0EEF6EDFCF53
:104AA000E9FFDF2A010EDBCFEAFF01E3DB2A2A0E52
:104AB000EF6EDFCFE9FFDF2A010EDBCFEAFF01E374
:104AC000DB2A2B0EEF6EDFCFE9FFDF2A010EDBCFF3
:104AD000EAFF01E3DB2A2C0EEF6EDFCFE9FFDF2ACE
:104AE000010EDBCFEAFF01E3DB2A2D0EEF6EDFCFF5
:104AF000E9FFDF2A010EDBCFEAFF01E3DB2A2E0EFE
:104B0000EF6EDFCFE9FFDF2A010EDBCFEAFF01E323
:104B1000DB2A2F0EEF6EDFCFE9FFDF2A010EDBCF9E
:104B2000EAFF01E3DB2A3A0EEF6EDFCFE9FFDF2A6F
:104B3000010EDBCFEAFF01E3DB2A3B0EEF6EDFCF96
:104B4000E9FFDF2A010EDBCFEAFF01E3DB2A3C0E9F
:104B5000EF6EDFCFE9FFDF2A010EDBCFEAFF01E3D3
:104B6000DB2A3D0EEF6EDFCFE9FFDF2A010EDBCF40
:104B7000EAFF01E3DB2AFB0EDBCFEFFFDFCFE9FF2C
:104B8000DF2A010EDBCFEAFF01E3DB2AFC0EDBCFDD
:104B9000EFFFDFCFE9FFDF2A010EDBCFEAFF01E302
:104BA000DB2AFD0EDBCFEFFFDFCFE9FFDF2A010EAF
:104BB000DBCFEAFF01E3DB2A010EEF6EDECF00F070
:104BC000DDCF01F000C0F3FF01C0F4FF00D0E552DB
:104BD000E552E552E5CFDAFFE7CFD9FF1200D9CF92
:104BE000E6FFDACFE6FFE1CFD9FFE2CFDAFFE55209
:104BF000E5CFDAFFE7CFD9FF1200D9CFE6FFDACF52
:104C0000E6FFE1CFD9FFE2CFDAFFE552E5CFDAFFE9
:104C1000E7CFD9FF12000400120012001200D9CF12
:104C2000E6FFDACFE6FFE1CFD9FFE2CFDAFFE552C8
:104C3000E5CFDAFFE7CFD9FF120012001200120011
:104C4000EADF0101010E7C6FEAC1E9FFEBC1EAFF77
:104C5000EECFE1FFEDCFE2FF1F0EFC1402E00600F5
:104C6000FBD7FC5001E0FC6AE552E550E96E050017
:104C7000E550FF6EE550FE6EE550FD6EE906F7E18A
:104C8000E5CF1BF0E5CF1AF0E5CF19F0E5CF18F02E
:104C9000E5CFF4FFE5CFF3FFE5CFF8FFE5CFF7FF72
:104CA000E5CFF6FFE5CFDAFFE7CFD9FFE552E5CF55
:104CB000EAFFE5CFE9FFE550E5CFE0FFE5CFD8FF1C
:104CC00010001200800ED0143F09F216D8CFE4FF76
:104CD000E0CFE4FFE46EE9CFE4FFEACFE4FFE65281
:104CE000D9CFE6FFDACFE6FFF6CFE6FFF7CFE6FF54
:104CF000F8CFE6FFF3CFE6FFF4CFE6FF18C0E6FFFC
:104D000019C0E6FF1AC0E6FF1BC0E6FFE96A1F0EE6
:104D1000FC1409E0FDCFE6FFFECFE6FFFFCFE6FF84
:104D20000600E92AF4D7E9CFE6FFFC5001E0FC6A6F
:104D3000E6C1E9FFE7C1EAFFE1CFEEFFE2CFEDFF19
:104D40006ADFEAC1E6F1EBC1E7F178C177F1EAC1C8
:104D5000E9FFEBC1EAFFEECFE1FFEDCFE2FFE55265
:104D6000E550E96E0500E550FF6EE550FE6EE5503A
:104D7000FD6EE906F7E1E5CF1BF0E5CF1AF0E5CFD0
:104D800019F0E5CF18F0E5CFF4FFE5CFF3FFE5CF5D
:104D9000F8FFE5CFF7FFE5CFF6FFE5CFDAFFE7CF86
:104DA000D9FFE552E5CFEAFFE5CFE9FFE550E5CFD2
:104DB000E0FFE5CFD8FF10001200D8CFE4FFE0CF2E
:104DC000E4FFE46EE9CFE4FFEACFE4FFE652D9CF97
:104DD000E6FFDACFE6FFF6CFE6FFF7CFE6FFF8CF44
:104DE000E6FFF3CFE6FFF4CFE6FF18C0E6FF19C0F9
:104DF000E6FF1AC0E6FF1BC0E6FF0101742B21ECA1
:104E00002FF041EC00F0E552E5CF1BF0E5CF1AF0B2
:104E1000E5CF19F0E5CF18F0E5CFF4FFE5CFF3FFCC
:104E2000E5CFF8FFE5CFF7FFE5CFF6FFE5CFDAFFF7
:104E3000E7CFD9FFE552E5CFEAFFE5CFE9FFE5503F
:104E4000E5CFE0FFE5CFD8FF100012000600060016
:104E5000E552E552E552E96A1F0EFC1409E0FDCF68
:104E6000E6FFFECFE6FFFFCFE6FF0600E92AF4D714
:104E7000E9CFE6FFFC5001E0FC6AE6C1E9FFE7C1CB
:104E8000EAFFE1CFEEFFE2CFEDFFC5DEEAC1E6F1DA
:104E9000EBC1E7F178C177F1EAC1E9FFEBC1EAFFC5
:104EA000EECFE1FFEDCFE2FF1F0EFC1402E00600A3
:104EB000FBD7FC5001E0FC6AE552E550E96E0500C5
:104EC000E550FF6EE550FE6EE550FD6EE906F7E138
:104ED000E5CF1BF0E5CF1AF0E5CF19F0E5CF18F0DC
:104EE000E5CFF4FFE5CFF3FFE5CFF8FFE5CFF7FF20
:104EF000E5CFF6FFE5CFDAFFE7CFD9FFE552E5CF03
:104F0000EAFFE5CFE9FFE550E5CFE0FFE5CFD8FFC9
:044F1000100012007B
:0C4F140000000000000000000000000091
:104F200000000000010EE66E3EEC2FF0E55212008C
:104F30000F0EE66E01EC2FF0E5521200050EE66E44
:104F400001EC2FF0E5521200D9CFE6FFDACFE6FFF1
:104F5000E1CFD9FFE2CFDAFFE65293920501745117
:104F600052E1D9CFE6FFDACFE6FF000EE66EE66A41
:104F7000B8C3E6FFB9C3E6FFDCEC16F0006E060E20
:104F8000E15C02E2E16AE552E16E00505DEC2EF078
:104F9000000901E0FBD7E66ADFEC2CF0E552520E87
:104FA000E66E050EE66E99EC2DF0E552E552817243
:104FB000D9CFE6FFDACFE6FF000EE66EE66ABCC3A5
:104FC000E6FFBDC3E6FFDCEC16F0006E060EE15C0A
:104FD00002E2E16AE552E16E0050010EE66E6BEC12
:104FE0002DF0E552B8C3E6FFB9C3E6FFA5EC17F014
:104FF000E552E552BEC3E6FFBFC3E6FFA5EC17F0DE
:10500000E552E552ABD7E668F9EC1CF0E552E55203
:10501000E552E5CFDAFFE7CFD9FF1200D9CFE6FF9F
:10502000DACFE6FFE1CFD9FFE2CFDAFFE652939481
:105030000501745101E0B0D0D9CFE6FFDACFE6FF29
:10504000000EE66EE66ABEC3E6FFBFC3E6FFDCEC19
:1050500016F0006E060EE15C02E2E16AE552E16ED6
:105060000050D9CFE6FFDACFE6FF000EE66EE66A23
:10507000B8C3E6FFB9C3E6FFDCEC16F0006E060E1F
:10508000E15C02E2E16AE552E16E00505DEC2EF077
:10509000000901E0FBD7400EE66EDFEC2CF0E55294
:1050A000A40EE66E030EE66E99EC2DF0E552E55285
:1050B000100EE66EDFEC2CF0E552B4C3E6FFB5C38C
:1050C000E6FFB6C3E6FFB7C3E6FF3EEC13F0E552DA
:1050D000E552E552E552B4C3E9FFB5C3EAFF020E5B
:1050E000E926000EEA22EFCFB2F30301B351E66ED8
:1050F000E66A0301B251E66EE66ACCEC29F0E552AD
:10510000E552E552E5520301B351E66EE66A99ECC9
:105110002DF0E552E552C80EE66EE66A10EC22F07C
:10512000E552E552B6C3E6FFB7C3E6FFA4EC0DF0C7
:10513000E552E5528174B4C3E9FFB5C3EAFF020E3C
:10514000E926000EEA22EFCFB2F30301B351E66E77
:10515000E66A0301B251E66EE66ACCEC29F0E5524C
:10516000E552E552E5520301B351E66EE66A99EC69
:105170002DF0E552E552B8C3E6FFB9C3E6FFA5EC52
:1051800017F0E552E552BCC3E6FFBDC3E6FFA5EC50
:1051900017F0E552E5524CD7E668F9EC1CF0E55201
:1051A000E552E552E5CFDAFFE7CFD9FF12009EA026
:1051B0003FD09E90E00EE66E3B0EE66E7CEC2EF04D
:1051C000E552E5527DEC24F018C0AEF319C0AFF300
:1051D0001AC0B0F31BC0B1F3A40EE66E030EE66E68
:1051E000AEC3E6FFAFC3E6FFB0C3E6FFB1C3E6FF61
:1051F00066EC2AF0006E060EE15C02E2E16AE5521E
:10520000E16E0050A40EE66E030EE66EB6C3E6FF36
:10521000B7C3E6FFA5EC0FF0E552E552E552E552C3
:10522000B8C3E6FFB9C3E6FFA5EC17F0E552E552B7
:105230001200F29E1CEC00F09F0EE66EB4EC2EF015
:10524000E552190EE66E110EE66E98EC2EF0E55260
:10525000E552ED0EE66E3CEC2EF0E552E00EE66E09
:105260003B0EE66E7CEC2EF0E552E552E66AC20E8D
:10527000E66E030EE66E000EE66EE66A480EE66E19
:105280004F0EE66E000EE66E1BEC1BF0006E080E75
:10529000E15C02E2E16AE552E16E0050010EE66E69
:1052A0008A0EE66E040EE66E000EE66EE66A1C0ED0
:1052B000E66E500EE66E000EE66E1BEC1BF0006E06
:1052C000080EE15C02E2E16AE552E16E0050010E77
:1052D000E66EE66AC2C3E6FFC3C3E6FF20EC0BF04E
:1052E000E552E552E552E552F3CFB6F3F4CFB7F30A
:1052F000010EE66EE66A44EC15F0E552E552F3CF96
:10530000B8F3F4CFB9F3000EE66EE66A44EC15F09C
:10531000E552E552F3CFBAF3F4CFBBF3010EE66EDC
:10532000E66A44EC15F0E552E552F3CFBCF3F4CF56
:10533000BDF3010EE66EE66A44EC15F0E552E55267
:10534000F3CFBEF3F4CFBFF3956A836A2B0EE66EFC
:10535000A7EC2BF0E5525DEC2EF0000901E0FBD745
:105360000C0EE66E6BEC2DF0E5525DEC2EF00009B4
:1053700001E0FBD7010EE66E6BEC2DF0E5525DEC23
:105380002EF0000901E0FBD7060EE66E6BEC2DF067
:08539000E55221EC01F01200CE
:08539800D9CFE6FFDACFE6FFF2
:1053A000FA0EE3CFD9FFFB0EE3CFDAFFFD0EE35297
:1053B00009E72D0EDE6EFC0EE31EE32AFD0ED8B4C7
:1053C000E306E31EE652E652E652FD0EE124E76EE6
:1053D000FF0EE220E46EE652F70EE3CFE6FFF70E93
:1053E000E3CFE6FF3CEC2AF0F90EE124E96EFF0E74
:1053F000E220EA6E2CEC2AF00AE129EC2AF009E11D
:105400002CEC2AF008E129EC2AF007E108D037EC6F
:105410002AF032EC2AF037EC2AF032EC2AF037ECA2
:105420002AF0DE6AF90EE126FF0EE222FF0EE3CF3C
:10543000DAFFE552FF0EE3CFD9FFE552FC0EE1247F
:10544000E96EFF0EE220EA6EEECFF3FFEFCFF4FF3E
:105450001200EF380F0B1200EF500F0B02E1EE526B
:10546000D8841200EF380F0B300FDE6E1200EE50B2
:105470000F0B300FDE6E1200FC0EE3CFE9FFFD0EC6
:10548000E3CFEAFF100EE66EEE6AEE6AEF6AD8909E
:10549000FD0EE336FE0EE336ED36ED36EF36FF0E4B
:1054A000E30609E05DEC2AF0EE525DEC2AF0EE52E4
:1054B0005DEC2AF0EDD7E56E1200030EEF24E8B69E
:1054C000EF6E300EEF24E8BEEF6E000CD9CFE6FF92
:1054D000DACFE6FFF80EE3CFD9FFF90EE3CFDAFF1C
:1054E000E652E652E652E652E652FB0EE124E76E41
:1054F000FF0EE220E46EE652F30EE3CFE6FFF30E7A
:10550000E3CFE6FFF30EE3CFE6FFF30EE3CFE6FFD4
:10551000EBEC2AF0F50EE124E96EFF0EE220EA6ED4
:10552000D8EC2AF019E1DBEC2AF018E1D8EC2AF0EB
:1055300017E1DBEC2AF016E1D8EC2AF015E1DBEC00
:105540002AF014E1D8EC2AF013E1DBEC2AF012E1A6
:10555000D8EC2AF011E112D0E1EC2AF0E6EC2AF0C6
:10556000E1EC2AF0E6EC2AF0E1EC2AF0E6EC2AF095
:10557000E1EC2AF0E6EC2AF0E1EC2AF0E6EC2AF085
:10558000DE6AF50EE126FF0EE222FF0EE3CFDAFF20
:10559000E552FF0EE3CFD9FFE552FA0EE124E96EA2
:1055A000FF0EE220EA6EEECFF3FFEFCFF4FF120022
:1055B000EF380F0B1200EF500F0B02E1EE52D884C0
:1055C0001200EF380F0B300FDE6E1200EE500F0B93
:1055D000300FDE6E1200FA0EE3CFE9FFFB0EE3CFD1
:1055E000EAFF200EE66EEE6AEE6AEE6AEE6AEF6A97
:1055F000D890FB0EE336FC0EE336FD0EE336FE0ECE
:10560000E336ED36ED36ED36ED36EF36FF0EE306DA
:105610000FE01AEC2BF0EE521AEC2BF0EE521AECD3
:105620002BF0EE521AEC2BF0EE521AEC2BF0E1D7E5
:10563000E56E1200030EEF24E8B6EF6E300EEF2495
:06564000E8BEEF6E000C55
:0A564600010204081020408000005B
:10565000010002000100030001000200010004003B
:10566000010002000100030001000200010005002A
:10567000010002000100030001000200010004001B
:105680000100020001000300010002000100060009
:1056900001000200010003000100020001000400FB
:1056A00001000200010003000100020001000500EA
:1056B00001000200010003000100020001000400DB
:1056C00001000200010003000100020001000700C8
:1056D00001000200010003000100020001000400BB
:1056E00001000200010003000100020001000500AA
:1056F000010002000100030001000200010004009B
:105700000100020001000300010002000100060088
:10571000010002000100030001000200010004007A
:105720000100020001000300010002000100050069
:10573000010002000100030001000200010004005A
:0E574000010002000100030001000200010050
:02574E00D9CFB1
:10575000E6FFDACFE6FFE1CFD9FFE2CFDAFF0F0EA7
:1057600083160F0E95169594959295908C948C9225
:105770008C9098EC27F0300EE66E6BEC2DF0E55235
:10578000050EE66EEAEC2EF0E552300EE66E6BEC9E
:105790002DF0E552010EE66EEAEC2EF0E552320EE7
:1057A000E66E6BEC2DF0E5525DEC2EF0000901E0A9
:1057B000FBD75DEC2EF0000901E0FBD7FD0EDBCF3F
:1057C000E6FF6BEC2DF0E5525DEC2EF0000901E0F8
:1057D000FBD7080EE66E6BEC2DF0E5525DEC2EF07B
:1057E000000901E0FBD70F0EE66E6BEC2DF0E552E1
:1057F0005DEC2EF0000901E0FBD7010EE66E6BECCC
:105800002DF0E5525DEC2EF0000901E0FBD7130E00
:10581000E66E6BEC2DF0E5525DEC2EF0000901E038
:10582000FBD7800EE66EDFEC2CF0E55200D0E5529F
:0A583000E5CFDAFFE7CFD9FF120041
:06583A002A0EF66E000EBE
:10584000F76E000EF86E05010900F5507A6F090039
:10585000F5507B6F03E17A6701D03DD00900F55028
:10586000756F0900F550766F0900F550776F0900E4
:105870000900F550E96E0900F550EA6E09000900CB
:105880000900F550786F0900F550796F090009009B
:10589000F6CF7CF5F7CF7DF5F8CF7EF575C5F6FF31
:1058A00076C5F7FF77C5F8FF0501785302E1795314
:1058B00007E00900F550EE6E7807F8E27907F9D7AE
:1058C0007CC5F6FF7DC5F7FF7EC5F8FF05017A07A9
:0858D000000E7B5BBFD7120044
:0858D800D9CFE6FFDACFE6FFAD
:1058E000E1CFD9FFE2CFDAFFFB0EDBCFF6FFFC0EF4
:1058F000DBCFF7FFFD0EDBCFF8FF0800F55020E00F
:105900005DEC2EF0000901E0FBD7FB0EDBCFF6FFCC
:10591000FC0EDBCFF7FFFD0EDBCFF8FF0800F550E4
:10592000E66E3DEC2DF0E552D950FB0FE96EFF0E0F
:10593000DA20EA6EEE2A000EEE22000EEE22D4D716
:0E59400000D0E552E5CFDAFFE7CFD9FF120025
:02594E001850EF
:105950001D02F3CF14F0F4CF15F01E02F3501526FC
:10596000000EF420166E18501F02F3501626000E7B
:10597000F420176E18502002F350172619501D02FC
:10598000F3501526F4501622000E172219501E024D
:10599000F3501626F450172219501F02F350172601
:1059A0001A501D02F3501626F45017221A501E02E8
:0E59B000F35017261B501D02F350172612004D
:0259BE00D9CF3F
:1059C000E6FFDACFE6FFE1CFD9FFE2CFDAFF0F0E35
:1059D00095160F0E8316FD0EDB508009F00B831217
:1059E0008C948C928AEC27F08C808AEC27F08C9037
:1059F0000F0E8316FD0EDB38F00BF00B83128AECD2
:105A000027F08C808AEC27F08C90F00E951200D055
:0C5A1000E552E5CFDAFFE7CFD9FF120026
:045A1C00D9CFE6FFF9
:105A2000DACFE6FFE1CFD9FFE2CFDAFF0F0E95160E
:105A30000F0E8316FD0EDB504009F00B83128C9481
:105A40008C928AEC27F08C808AEC27F08C900F0ED9
:105A50008316FD0EDB38F00BF00B83128AEC27F077
:105A60008C808AEC27F08C90F00E951200D0E552D5
:0A5A7000E5CFDAFFE7CFD9FF1200FF
:065A7A00D9CFE6FFDACFF0
:105A8000E6FFE1CFD9FFE2CFDAFF0F0E95160F0E3A
:105A90008316FD0EDB50F00B83128C828C948AEC03
:105AA00027F08C808AEC27F08C900F0E8316FD0E69
